{
  "contractName": "LiquidityAdder",
  "abi": [
    {
      "inputs": [
        {
          "internalType": "address",
          "name": "weth_",
          "type": "address"
        },
        {
          "internalType": "address",
          "name": "factory_",
          "type": "address"
        },
        {
          "internalType": "address",
          "name": "router_",
          "type": "address"
        }
      ],
      "stateMutability": "nonpayable",
      "type": "constructor"
    },
    {
      "inputs": [],
      "name": "factory",
      "outputs": [
        {
          "internalType": "contract IUniswapV2Factory",
          "name": "",
          "type": "address"
        }
      ],
      "stateMutability": "view",
      "type": "function",
      "constant": true
    },
    {
      "inputs": [],
      "name": "router",
      "outputs": [
        {
          "internalType": "contract IUniswapV2Router02",
          "name": "",
          "type": "address"
        }
      ],
      "stateMutability": "view",
      "type": "function",
      "constant": true
    },
    {
      "inputs": [],
      "name": "weth",
      "outputs": [
        {
          "internalType": "contract MockERC20",
          "name": "",
          "type": "address"
        }
      ],
      "stateMutability": "view",
      "type": "function",
      "constant": true
    },
    {
      "inputs": [
        {
          "internalType": "contract IToken",
          "name": "token",
          "type": "address"
        },
        {
          "internalType": "uint256",
          "name": "amountToken",
          "type": "uint256"
        },
        {
          "internalType": "uint256",
          "name": "amountWeth",
          "type": "uint256"
        }
      ],
      "name": "addLiquiditySingle",
      "outputs": [],
      "stateMutability": "payable",
      "type": "function",
      "payable": true
    }
  ],
  "bytecode": "0x608060405234801561001057600080fd5b506040516107e83803806107e88339818101604052606081101561003357600080fd5b81019080805190602001909291908051906020019092919080519060200190929190505050826000806101000a81548173ffffffffffffffffffffffffffffffffffffffff021916908373ffffffffffffffffffffffffffffffffffffffff16021790555081600160006101000a81548173ffffffffffffffffffffffffffffffffffffffff021916908373ffffffffffffffffffffffffffffffffffffffff16021790555080600260006101000a81548173ffffffffffffffffffffffffffffffffffffffff021916908373ffffffffffffffffffffffffffffffffffffffff1602179055505050506106bc8061012c6000396000f3fe60806040526004361061003f5760003560e01c80633fc8cef314610044578063c45a015514610085578063decc008a146100c6578063f887ea401461011e575b600080fd5b34801561005057600080fd5b5061005961015f565b604051808273ffffffffffffffffffffffffffffffffffffffff16815260200191505060405180910390f35b34801561009157600080fd5b5061009a610183565b604051808273ffffffffffffffffffffffffffffffffffffffff16815260200191505060405180910390f35b61011c600480360360608110156100dc57600080fd5b81019080803573ffffffffffffffffffffffffffffffffffffffff16906020019092919080359060200190929190803590602001909291905050506101a9565b005b34801561012a57600080fd5b50610133610660565b604051808273ffffffffffffffffffffffffffffffffffffffff16815260200191505060405180910390f35b60008054906101000a900473ffffffffffffffffffffffffffffffffffffffff1681565b600160009054906101000a900473ffffffffffffffffffffffffffffffffffffffff1681565b80341461021e576040517f08c379a00000000000000000000000000000000000000000000000000000000081526004018080602001828103825260118152602001807f496e76616c6964206d73672e76616c756500000000000000000000000000000081525060200191505060405180910390fd5b8273ffffffffffffffffffffffffffffffffffffffff166340c10f1930846040518363ffffffff1660e01b8152600401808373ffffffffffffffffffffffffffffffffffffffff16815260200182815260200192505050600060405180830381600087803b15801561028f57600080fd5b505af11580156102a3573d6000803e3d6000fd5b5050505060008054906101000a900473ffffffffffffffffffffffffffffffffffffffff1673ffffffffffffffffffffffffffffffffffffffff1663d0e30db0826040518263ffffffff1660e01b81526004016000604051808303818588803b15801561030f57600080fd5b505af1158015610323573d6000803e3d6000fd5b50505050508273ffffffffffffffffffffffffffffffffffffffff1663095ea7b3600260009054906101000a900473ffffffffffffffffffffffffffffffffffffffff16846040518363ffffffff1660e01b8152600401808373ffffffffffffffffffffffffffffffffffffffff16815260200182815260200192505050602060405180830381600087803b1580156103bb57600080fd5b505af11580156103cf573d6000803e3d6000fd5b505050506040513d60208110156103e557600080fd5b81019080805190602001909291905050505060008054906101000a900473ffffffffffffffffffffffffffffffffffffffff1673ffffffffffffffffffffffffffffffffffffffff1663095ea7b3600260009054906101000a900473ffffffffffffffffffffffffffffffffffffffff16836040518363ffffffff1660e01b8152600401808373ffffffffffffffffffffffffffffffffffffffff16815260200182815260200192505050602060405180830381600087803b1580156104aa57600080fd5b505af11580156104be573d6000803e3d6000fd5b505050506040513d60208110156104d457600080fd5b810190808051906020019092919050505050600260009054906101000a900473ffffffffffffffffffffffffffffffffffffffff1673ffffffffffffffffffffffffffffffffffffffff1663e8e337008460008054906101000a900473ffffffffffffffffffffffffffffffffffffffff1685856002888161055257fe5b046002888161055d57fe5b0433426040518963ffffffff1660e01b8152600401808973ffffffffffffffffffffffffffffffffffffffff1681526020018873ffffffffffffffffffffffffffffffffffffffff1681526020018781526020018681526020018581526020018481526020018373ffffffffffffffffffffffffffffffffffffffff16815260200182815260200198505050505050505050606060405180830381600087803b15801561060957600080fd5b505af115801561061d573d6000803e3d6000fd5b505050506040513d606081101561063357600080fd5b81019080805190602001909291908051906020019092919080519060200190929190505050505050505050565b600260009054906101000a900473ffffffffffffffffffffffffffffffffffffffff168156fea2646970667358221220f1b94c9fbea20cc5aa0c614f1d4b5b698abbdcd999bea598c7f384aa4258bfd264736f6c63430007060033",
  "immutableReferences": {},
  "source": "import \"@uniswap/v2-core/contracts/interfaces/IUniswapV2Pair.sol\";\r\nimport \"@uniswap/v2-core/contracts/interfaces/IUniswapV2Factory.sol\";\r\n\r\nimport \"@openzeppelin/contracts/token/ERC20/IERC20.sol\";\r\n\r\nimport \"./MockERC20.sol\";\r\nimport \"../interfaces/IToken.sol\";\r\n\r\ninterface IUniswapV2Router02 {\r\n\r\n  function addLiquidity(\r\n    address tokenA,\r\n    address tokenB,\r\n    uint amountADesired,\r\n    uint amountBDesired,\r\n    uint amountAMin,\r\n    uint amountBMin,\r\n    address to,\r\n    uint deadline\r\n  ) external returns (uint amountA, uint amountB, uint liquidity);\r\n}\r\n\r\n\r\ncontract LiquidityAdder {\r\n\r\n  MockERC20 public weth;\r\n  IUniswapV2Factory public factory;\r\n  IUniswapV2Router02 public router;\r\n\r\n  constructor(\r\n    address weth_,\r\n    address factory_,\r\n    address router_\r\n  )\r\n  public\r\n  {\r\n    weth = MockERC20(weth_);\r\n    factory = IUniswapV2Factory(factory_);\r\n    router = IUniswapV2Router02(router_);\r\n  }\r\n\r\n  function addLiquiditySingle(\r\n    IToken token,\r\n    uint256 amountToken,\r\n    uint256 amountWeth\r\n  )\r\n  public\r\n  payable\r\n  {\r\n    require(msg.value == amountWeth, \"Invalid msg.value\");\r\n\r\n    IToken(token).mint(address(this), amountToken);\r\n//    weth.getFreeTokens(address(this), amountWeth);\r\n    weth.deposit{ value: amountWeth }();\r\n    IERC20(address(token)).approve(address(router), amountToken);\r\n    weth.approve(address(router), amountWeth);\r\n    router.addLiquidity(\r\n      address(token),\r\n      address(weth),\r\n      amountToken,\r\n      amountWeth,\r\n      amountToken / 2,\r\n      amountWeth / 2,\r\n      msg.sender,\r\n      block.timestamp\r\n    );\r\n  }\r\n}",
  "sourcePath": "C:/Users/pauli/Projects/BinanceX/contracts/mock/LiquidityAdder.sol",
  "compiler": {
    "name": "solc",
    "version": "0.7.6+commit.7338295f.Emscripten.clang"
  },
  "schemaVersion": "3.3.2",
  "updatedAt": "2020-12-17T18:55:56.865Z",
  "networkType": "ethereum",
  "devdoc": {
    "kind": "dev",
    "methods": {},
    "version": 1
  },
  "userdoc": {
    "kind": "user",
    "methods": {},
    "version": 1
  }
}