{
  "contractName": "Reward",
  "abi": [
    {
      "inputs": [
        {
          "internalType": "address",
          "name": "_token",
          "type": "address"
        }
      ],
      "stateMutability": "nonpayable",
      "type": "constructor"
    },
    {
      "anonymous": false,
      "inputs": [
        {
          "indexed": false,
          "internalType": "address",
          "name": "_address",
          "type": "address"
        },
        {
          "indexed": false,
          "internalType": "bool",
          "name": "_blacklisted",
          "type": "bool"
        }
      ],
      "name": "Blacklisted",
      "type": "event"
    },
    {
      "anonymous": false,
      "inputs": [
        {
          "indexed": true,
          "internalType": "address",
          "name": "_who",
          "type": "address"
        },
        {
          "indexed": true,
          "internalType": "uint256",
          "name": "_rewardId",
          "type": "uint256"
        },
        {
          "indexed": false,
          "internalType": "uint256",
          "name": "_amount",
          "type": "uint256"
        },
        {
          "indexed": false,
          "internalType": "uint256",
          "name": "_timestamp",
          "type": "uint256"
        }
      ],
      "name": "Claimed",
      "type": "event"
    },
    {
      "anonymous": false,
      "inputs": [
        {
          "indexed": false,
          "internalType": "address",
          "name": "_who",
          "type": "address"
        },
        {
          "indexed": false,
          "internalType": "uint256",
          "name": "_amount",
          "type": "uint256"
        },
        {
          "indexed": false,
          "internalType": "uint256",
          "name": "_timestamp",
          "type": "uint256"
        }
      ],
      "name": "Deposit",
      "type": "event"
    },
    {
      "anonymous": false,
      "inputs": [
        {
          "indexed": false,
          "internalType": "uint256",
          "name": "_rewardId",
          "type": "uint256"
        },
        {
          "indexed": false,
          "internalType": "uint256",
          "name": "_amount",
          "type": "uint256"
        },
        {
          "indexed": false,
          "internalType": "uint256",
          "name": "_timestamp",
          "type": "uint256"
        }
      ],
      "name": "Drained",
      "type": "event"
    },
    {
      "anonymous": false,
      "inputs": [
        {
          "indexed": false,
          "internalType": "uint256",
          "name": "_rewardId",
          "type": "uint256"
        },
        {
          "indexed": false,
          "internalType": "uint256",
          "name": "_snapshotId",
          "type": "uint256"
        },
        {
          "indexed": false,
          "internalType": "uint256",
          "name": "_amount",
          "type": "uint256"
        },
        {
          "indexed": false,
          "internalType": "uint256",
          "name": "_timestamp",
          "type": "uint256"
        }
      ],
      "name": "NewReward",
      "type": "event"
    },
    {
      "anonymous": false,
      "inputs": [
        {
          "indexed": false,
          "internalType": "address",
          "name": "_token",
          "type": "address"
        },
        {
          "indexed": false,
          "internalType": "uint256",
          "name": "_timestamp",
          "type": "uint256"
        }
      ],
      "name": "NewToken",
      "type": "event"
    },
    {
      "anonymous": false,
      "inputs": [
        {
          "indexed": true,
          "internalType": "address",
          "name": "previousOwner",
          "type": "address"
        },
        {
          "indexed": true,
          "internalType": "address",
          "name": "newOwner",
          "type": "address"
        }
      ],
      "name": "OwnershipTransferred",
      "type": "event"
    },
    {
      "inputs": [],
      "name": "CLAIM_DEADLINE",
      "outputs": [
        {
          "internalType": "uint256",
          "name": "",
          "type": "uint256"
        }
      ],
      "stateMutability": "view",
      "type": "function",
      "constant": true
    },
    {
      "inputs": [],
      "name": "MIN_SNAPSHOT_INTERVAL",
      "outputs": [
        {
          "internalType": "uint256",
          "name": "",
          "type": "uint256"
        }
      ],
      "stateMutability": "view",
      "type": "function",
      "constant": true
    },
    {
      "inputs": [
        {
          "internalType": "address",
          "name": "",
          "type": "address"
        },
        {
          "internalType": "uint256",
          "name": "",
          "type": "uint256"
        }
      ],
      "name": "claimedRewards",
      "outputs": [
        {
          "internalType": "bool",
          "name": "",
          "type": "bool"
        }
      ],
      "stateMutability": "view",
      "type": "function",
      "constant": true
    },
    {
      "inputs": [],
      "name": "owner",
      "outputs": [
        {
          "internalType": "address",
          "name": "",
          "type": "address"
        }
      ],
      "stateMutability": "view",
      "type": "function",
      "constant": true
    },
    {
      "inputs": [],
      "name": "renounceOwnership",
      "outputs": [],
      "stateMutability": "nonpayable",
      "type": "function"
    },
    {
      "inputs": [
        {
          "internalType": "uint256",
          "name": "",
          "type": "uint256"
        }
      ],
      "name": "rewards",
      "outputs": [
        {
          "internalType": "uint256",
          "name": "snapshotId",
          "type": "uint256"
        },
        {
          "internalType": "uint256",
          "name": "totalSupplyAtSnapshot",
          "type": "uint256"
        },
        {
          "internalType": "uint256",
          "name": "rewardAmount",
          "type": "uint256"
        },
        {
          "internalType": "uint256",
          "name": "claimedAmount",
          "type": "uint256"
        },
        {
          "internalType": "uint256",
          "name": "timestamp",
          "type": "uint256"
        }
      ],
      "stateMutability": "view",
      "type": "function",
      "constant": true
    },
    {
      "inputs": [],
      "name": "token",
      "outputs": [
        {
          "internalType": "contract IToken",
          "name": "",
          "type": "address"
        }
      ],
      "stateMutability": "view",
      "type": "function",
      "constant": true
    },
    {
      "inputs": [
        {
          "internalType": "address",
          "name": "newOwner",
          "type": "address"
        }
      ],
      "name": "transferOwnership",
      "outputs": [],
      "stateMutability": "nonpayable",
      "type": "function"
    },
    {
      "stateMutability": "payable",
      "type": "receive",
      "payable": true
    },
    {
      "inputs": [
        {
          "internalType": "address",
          "name": "_token",
          "type": "address"
        }
      ],
      "name": "setToken",
      "outputs": [],
      "stateMutability": "nonpayable",
      "type": "function"
    },
    {
      "inputs": [
        {
          "internalType": "uint256",
          "name": "_rewardId",
          "type": "uint256"
        }
      ],
      "name": "claim",
      "outputs": [],
      "stateMutability": "nonpayable",
      "type": "function"
    },
    {
      "inputs": [
        {
          "internalType": "uint256[]",
          "name": "_rewardIds",
          "type": "uint256[]"
        }
      ],
      "name": "claimBulk",
      "outputs": [],
      "stateMutability": "nonpayable",
      "type": "function"
    },
    {
      "inputs": [
        {
          "internalType": "uint256",
          "name": "_rewardId",
          "type": "uint256"
        }
      ],
      "name": "drain",
      "outputs": [],
      "stateMutability": "nonpayable",
      "type": "function"
    },
    {
      "inputs": [
        {
          "internalType": "uint256[]",
          "name": "_rewardIds",
          "type": "uint256[]"
        }
      ],
      "name": "drainBulk",
      "outputs": [],
      "stateMutability": "nonpayable",
      "type": "function"
    },
    {
      "inputs": [
        {
          "internalType": "address[]",
          "name": "_blacklisted",
          "type": "address[]"
        }
      ],
      "name": "addBlacklist",
      "outputs": [],
      "stateMutability": "nonpayable",
      "type": "function"
    },
    {
      "inputs": [
        {
          "internalType": "address[]",
          "name": "_blacklisted",
          "type": "address[]"
        }
      ],
      "name": "removeBlacklist",
      "outputs": [],
      "stateMutability": "nonpayable",
      "type": "function"
    },
    {
      "inputs": [],
      "name": "getNumberOfRewards",
      "outputs": [
        {
          "internalType": "uint256",
          "name": "",
          "type": "uint256"
        }
      ],
      "stateMutability": "view",
      "type": "function",
      "constant": true
    },
    {
      "inputs": [
        {
          "internalType": "uint256",
          "name": "_rewardId",
          "type": "uint256"
        }
      ],
      "name": "getRewardInfo",
      "outputs": [
        {
          "internalType": "uint256",
          "name": "snapshotId",
          "type": "uint256"
        },
        {
          "internalType": "uint256",
          "name": "totalSupplyAtSnapshot",
          "type": "uint256"
        },
        {
          "internalType": "uint256",
          "name": "rewardAmount",
          "type": "uint256"
        },
        {
          "internalType": "uint256",
          "name": "claimedAmount",
          "type": "uint256"
        },
        {
          "internalType": "uint256",
          "name": "timestamp",
          "type": "uint256"
        }
      ],
      "stateMutability": "view",
      "type": "function",
      "constant": true
    },
    {
      "inputs": [
        {
          "internalType": "uint256",
          "name": "_rewardId",
          "type": "uint256"
        }
      ],
      "name": "deadline",
      "outputs": [
        {
          "internalType": "uint256",
          "name": "",
          "type": "uint256"
        }
      ],
      "stateMutability": "view",
      "type": "function",
      "constant": true
    },
    {
      "inputs": [
        {
          "internalType": "uint256",
          "name": "_rewardId",
          "type": "uint256"
        }
      ],
      "name": "beforeDeadline",
      "outputs": [
        {
          "internalType": "bool",
          "name": "",
          "type": "bool"
        }
      ],
      "stateMutability": "view",
      "type": "function",
      "constant": true
    },
    {
      "inputs": [
        {
          "internalType": "uint256",
          "name": "_rewardId",
          "type": "uint256"
        }
      ],
      "name": "getMyShare",
      "outputs": [
        {
          "internalType": "uint256",
          "name": "",
          "type": "uint256"
        }
      ],
      "stateMutability": "view",
      "type": "function",
      "constant": true
    },
    {
      "inputs": [
        {
          "internalType": "address",
          "name": "_account",
          "type": "address"
        },
        {
          "internalType": "uint256",
          "name": "_rewardId",
          "type": "uint256"
        }
      ],
      "name": "getShare",
      "outputs": [
        {
          "internalType": "uint256",
          "name": "",
          "type": "uint256"
        }
      ],
      "stateMutability": "view",
      "type": "function",
      "constant": true
    },
    {
      "inputs": [
        {
          "internalType": "address",
          "name": "_address",
          "type": "address"
        }
      ],
      "name": "blacklistContains",
      "outputs": [
        {
          "internalType": "bool",
          "name": "",
          "type": "bool"
        }
      ],
      "stateMutability": "view",
      "type": "function",
      "constant": true
    },
    {
      "inputs": [],
      "name": "blacklistLength",
      "outputs": [
        {
          "internalType": "uint256",
          "name": "",
          "type": "uint256"
        }
      ],
      "stateMutability": "view",
      "type": "function",
      "constant": true
    },
    {
      "inputs": [
        {
          "internalType": "uint256",
          "name": "_index",
          "type": "uint256"
        }
      ],
      "name": "blacklistAt",
      "outputs": [
        {
          "internalType": "address",
          "name": "",
          "type": "address"
        }
      ],
      "stateMutability": "view",
      "type": "function",
      "constant": true
    }
  ],
  "bytecode": "0x60806040523480156200001157600080fd5b5060405162002ccd38038062002ccd833981810160405260208110156200003757600080fd5b810190808051906020019092919050505060006200005a6200011760201b60201c565b9050806000806101000a81548173ffffffffffffffffffffffffffffffffffffffff021916908373ffffffffffffffffffffffffffffffffffffffff1602179055508073ffffffffffffffffffffffffffffffffffffffff16600073ffffffffffffffffffffffffffffffffffffffff167f8be0079c531659141344cd1fd0a4f28419497f9722a3daafe3b4186f6b6457e060405160405180910390a3506001808190555062000110816200011f60201b60201c565b5062000344565b600033905090565b6200012f6200011760201b60201c565b73ffffffffffffffffffffffffffffffffffffffff1660008054906101000a900473ffffffffffffffffffffffffffffffffffffffff1673ffffffffffffffffffffffffffffffffffffffff1614620001f0576040517f08c379a00000000000000000000000000000000000000000000000000000000081526004018080602001828103825260208152602001807f4f776e61626c653a2063616c6c6572206973206e6f7420746865206f776e657281525060200191505060405180910390fd5b600073ffffffffffffffffffffffffffffffffffffffff168173ffffffffffffffffffffffffffffffffffffffff16141562000294576040517f08c379a000000000000000000000000000000000000000000000000000000000815260040180806020018281038252600f8152602001807f496e76616c69642061646472657373000000000000000000000000000000000081525060200191505060405180910390fd5b80600260006101000a81548173ffffffffffffffffffffffffffffffffffffffff021916908373ffffffffffffffffffffffffffffffffffffffff1602179055507f275a11e033325e9b28a23131fcc7e243a49bb38beb686051976dd8c8899d9a3c81620003076200033c60201b60201c565b604051808373ffffffffffffffffffffffffffffffffffffffff1681526020018281526020019250505060405180910390a150565b600042905090565b61297980620003546000396000f3fe60806040526004361061014f5760003560e01c80639346afac116100b6578063f2fde38b1161006f578063f2fde38b1461077f578063f301af42146107d0578063f6b19c741461083b578063f73c38e114610876578063fb831b9a146108fc578063fc0c546a1461096d576101c3565b80639346afac146105e3578063a13ce8961461060e578063ad11bf4314610673578063ad381c71146106da578063c40dc8ec14610705578063e543726514610754576101c3565b80634c78b276116101085780634c78b276146103f657806359363bca146104655780635fe6e413146104b4578063715018a6146105055780637911ef9d1461051c5780638da5cb5b146105a2576101c3565b8063144fa6d7146101c8578063243d382714610219578063379607f5146102845780633d2cc56c146102bf57806342f8158014610345578063496ef21714610370576101c3565b366101c35761015d346109ae565b7f90890809c654f11d6e72a28fa60149770a0d11ec6c92319d6ceb2bb0a4ea1a153334610188610e15565b604051808473ffffffffffffffffffffffffffffffffffffffff168152602001838152602001828152602001935050505060405180910390a1005b600080fd5b3480156101d457600080fd5b50610217600480360360208110156101eb57600080fd5b81019080803573ffffffffffffffffffffffffffffffffffffffff169060200190929190505050610e1d565b005b34801561022557600080fd5b506102526004803603602081101561023c57600080fd5b8101908080359060200190929190505050611028565b604051808681526020018581526020018481526020018381526020018281526020019550505050505060405180910390f35b34801561029057600080fd5b506102bd600480360360208110156102a757600080fd5b8101908080359060200190929190505050611141565b005b3480156102cb57600080fd5b50610343600480360360208110156102e257600080fd5b81019080803590602001906401000000008111156102ff57600080fd5b82018360208201111561031157600080fd5b8035906020019184602083028401116401000000008311171561033357600080fd5b909192939192939050505061157e565b005b34801561035157600080fd5b5061035a611723565b6040518082815260200191505060405180910390f35b34801561037c57600080fd5b506103f46004803603602081101561039357600080fd5b81019080803590602001906401000000008111156103b057600080fd5b8201836020820111156103c257600080fd5b803590602001918460208302840111640100000000831117156103e457600080fd5b909192939192939050505061172a565b005b34801561040257600080fd5b5061044f6004803603604081101561041957600080fd5b81019080803573ffffffffffffffffffffffffffffffffffffffff16906020019092919080359060200190929190505050611765565b6040518082815260200191505060405180910390f35b34801561047157600080fd5b5061049e6004803603602081101561048857600080fd5b81019080803590602001909291905050506118eb565b6040518082815260200191505060405180910390f35b3480156104c057600080fd5b506104ed600480360360208110156104d757600080fd5b8101908080359060200190929190505050611905565b60405180821515815260200191505060405180910390f35b34801561051157600080fd5b5061051a611921565b005b34801561052857600080fd5b506105a06004803603602081101561053f57600080fd5b810190808035906020019064010000000081111561055c57600080fd5b82018360208201111561056e57600080fd5b8035906020019184602083028401116401000000008311171561059057600080fd5b9091929391929390505050611aa7565b005b3480156105ae57600080fd5b506105b7611c4c565b604051808273ffffffffffffffffffffffffffffffffffffffff16815260200191505060405180910390f35b3480156105ef57600080fd5b506105f8611c75565b6040518082815260200191505060405180910390f35b34801561061a57600080fd5b506106476004803603602081101561063157600080fd5b8101908080359060200190929190505050611c86565b604051808273ffffffffffffffffffffffffffffffffffffffff16815260200191505060405180910390f35b34801561067f57600080fd5b506106c26004803603602081101561069657600080fd5b81019080803573ffffffffffffffffffffffffffffffffffffffff169060200190929190505050611ca3565b60405180821515815260200191505060405180910390f35b3480156106e657600080fd5b506106ef611cc0565b6040518082815260200191505060405180910390f35b34801561071157600080fd5b5061073e6004803603602081101561072857600080fd5b8101908080359060200190929190505050611cc6565b6040518082815260200191505060405180910390f35b34801561076057600080fd5b50610769611ce6565b6040518082815260200191505060405180910390f35b34801561078b57600080fd5b506107ce600480360360208110156107a257600080fd5b81019080803573ffffffffffffffffffffffffffffffffffffffff169060200190929190505050611cf3565b005b3480156107dc57600080fd5b50610809600480360360208110156107f357600080fd5b8101908080359060200190929190505050611efe565b604051808681526020018581526020018481526020018381526020018281526020019550505050505060405180910390f35b34801561084757600080fd5b506108746004803603602081101561085e57600080fd5b8101908080359060200190929190505050611f44565b005b34801561088257600080fd5b506108fa6004803603602081101561089957600080fd5b81019080803590602001906401000000008111156108b657600080fd5b8201836020820111156108c857600080fd5b803590602001918460208302840111640100000000831117156108ea57600080fd5b9091929391929390505050612214565b005b34801561090857600080fd5b506109556004803603604081101561091f57600080fd5b81019080803573ffffffffffffffffffffffffffffffffffffffff1690602001909291908035906020019092919050505061224f565b60405180821515815260200191505060405180910390f35b34801561097957600080fd5b5061098261227e565b604051808273ffffffffffffffffffffffffffffffffffffffff16815260200191505060405180910390f35b60008111610a24576040517f08c379a00000000000000000000000000000000000000000000000000000000081526004018080602001828103825260168152602001807f4d757374206465706f73697420736f6d657468696e670000000000000000000081525060200191505060405180910390fd5b6000600854610a31610e15565b0390506000600260009054906101000a900473ffffffffffffffffffffffffffffffffffffffff1673ffffffffffffffffffffffffffffffffffffffff16639711715a6040518163ffffffff1660e01b8152600401602060405180830381600087803b158015610aa057600080fd5b505af1158015610ab4573d6000803e3d6000fd5b505050506040513d6020811015610aca57600080fd5b810190808051906020019092919050505090506000600260009054906101000a900473ffffffffffffffffffffffffffffffffffffffff1673ffffffffffffffffffffffffffffffffffffffff1663981b24d0836040518263ffffffff1660e01b81526004018082815260200191505060206040518083038186803b158015610b5257600080fd5b505afa158015610b66573d6000803e3d6000fd5b505050506040513d6020811015610b7c57600080fd5b810190808051906020019092919050505090506000600380549050905060005b610ba4611c75565b811015610d15576000610bb682611c86565b90506000600260009054906101000a900473ffffffffffffffffffffffffffffffffffffffff1673ffffffffffffffffffffffffffffffffffffffff16634ee2cd7e83886040518363ffffffff1660e01b8152600401808373ffffffffffffffffffffffffffffffffffffffff1681526020018281526020019250505060206040518083038186803b158015610c4b57600080fd5b505afa158015610c5f573d6000803e3d6000fd5b505050506040513d6020811015610c7557600080fd5b81019080805190602001909291905050509050610c9b81866122a490919063ffffffff16565b94506001600660008473ffffffffffffffffffffffffffffffffffffffff1673ffffffffffffffffffffffffffffffffffffffff168152602001908152602001600020600086815260200190815260200160002060006101000a81548160ff02191690831515021790555050508080600101915050610b9c565b5060006040518060a0016040528085815260200184815260200187815260200160008152602001610d44610e15565b8152509050600381908060018154018082558091505060019003906000526020600020906005020160009091909190915060008201518160000155602082015181600101556040820151816002015560608201518160030155608082015181600401555050610db1610e15565b6008819055507fd5d5398ec29e2d70c90655f3ba036b20257e8a9c4ee4b30feb3372d8c2afae4b828588610de3610e15565b6040518085815260200184815260200183815260200182815260200194505050505060405180910390a1505050505050565b600042905090565b610e256122ee565b73ffffffffffffffffffffffffffffffffffffffff1660008054906101000a900473ffffffffffffffffffffffffffffffffffffffff1673ffffffffffffffffffffffffffffffffffffffff1614610ee5576040517f08c379a00000000000000000000000000000000000000000000000000000000081526004018080602001828103825260208152602001807f4f776e61626c653a2063616c6c6572206973206e6f7420746865206f776e657281525060200191505060405180910390fd5b600073ffffffffffffffffffffffffffffffffffffffff168173ffffffffffffffffffffffffffffffffffffffff161415610f88576040517f08c379a000000000000000000000000000000000000000000000000000000000815260040180806020018281038252600f8152602001807f496e76616c69642061646472657373000000000000000000000000000000000081525060200191505060405180910390fd5b80600260006101000a81548173ffffffffffffffffffffffffffffffffffffffff021916908373ffffffffffffffffffffffffffffffffffffffff1602179055507f275a11e033325e9b28a23131fcc7e243a49bb38beb686051976dd8c8899d9a3c81610ff3610e15565b604051808373ffffffffffffffffffffffffffffffffffffffff1681526020018281526020019250505060405180910390a150565b60008060008060008086101580156110465750611043611ce6565b86105b6110b8576040517f08c379a00000000000000000000000000000000000000000000000000000000081526004018080602001828103825260118152602001807f496e76616c69642072657761726420696400000000000000000000000000000081525060200191505060405180910390fd5b6000600387815481106110c757fe5b90600052602060002090600502016040518060a001604052908160008201548152602001600182015481526020016002820154815260200160038201548152602001600482015481525050905080600001519550806020015194508060400151935080606001519250806080015191505091939590929450565b600260015414156111ba576040517f08c379a000000000000000000000000000000000000000000000000000000000815260040180806020018281038252601f8152602001807f5265656e7472616e637947756172643a207265656e7472616e742063616c6c0081525060200191505060405180910390fd5b6002600181905550600660006111ce6122ee565b73ffffffffffffffffffffffffffffffffffffffff1673ffffffffffffffffffffffffffffffffffffffff168152602001908152602001600020600082815260200190815260200160002060009054906101000a900460ff161561129a576040517f08c379a000000000000000000000000000000000000000000000000000000000815260040180806020018281038252600f8152602001807f416c726561647920636c61696d6564000000000000000000000000000000000081525060200191505060405180910390fd5b6112a381611905565b611315576040517f08c379a00000000000000000000000000000000000000000000000000000000081526004018080602001828103825260088152602001807f546f6f206c61746500000000000000000000000000000000000000000000000081525060200191505060405180910390fd5b6000611320826118eb565b905060008111611398576040517f08c379a00000000000000000000000000000000000000000000000000000000081526004018080602001828103825260108152602001807f4e6f7468696e6720746f20636c61696d0000000000000000000000000000000081525060200191505060405180910390fd5b6000600383815481106113a757fe5b906000526020600020906005020190506113ce8282600301546122f690919063ffffffff16565b81600301819055506001600660006113e46122ee565b73ffffffffffffffffffffffffffffffffffffffff1673ffffffffffffffffffffffffffffffffffffffff168152602001908152602001600020600085815260200190815260200160002060006101000a81548160ff02191690831515021790555060006114506122ee565b73ffffffffffffffffffffffffffffffffffffffff168360405180600001905060006040518083038185875af1925050503d80600081146114ad576040519150601f19603f3d011682016040523d82523d6000602084013e6114b2565b606091505b505090508061150c576040517f08c379a000000000000000000000000000000000000000000000000000000000815260040180806020018281038252603881526020018061290c6038913960400191505060405180910390fd5b836115156122ee565b73ffffffffffffffffffffffffffffffffffffffff167f9cdcf2f7714cca3508c7f0110b04a90a80a3a8dd0e35de99689db74d28c5383e85611555610e15565b604051808381526020018281526020019250505060405180910390a35050506001808190555050565b6115866122ee565b73ffffffffffffffffffffffffffffffffffffffff1660008054906101000a900473ffffffffffffffffffffffffffffffffffffffff1673ffffffffffffffffffffffffffffffffffffffff1614611646576040517f08c379a00000000000000000000000000000000000000000000000000000000081526004018080602001828103825260208152602001807f4f776e61626c653a2063616c6c6572206973206e6f7420746865206f776e657281525060200191505060405180910390fd5b60005b8282905081101561171e5761169083838381811061166357fe5b9050602002013573ffffffffffffffffffffffffffffffffffffffff16600461237e90919063ffffffff16565b507fcf3473b85df1594d47b6958f29a32bea0abff9dd68296f7bf33443646793cfd88383838181106116be57fe5b9050602002013573ffffffffffffffffffffffffffffffffffffffff166001604051808373ffffffffffffffffffffffffffffffffffffffff16815260200182151581526020019250505060405180910390a18080600101915050611649565b505050565b62eff10081565b60005b828290508110156117605761175383838381811061174757fe5b90506020020135611141565b808060010191505061172d565b505050565b6000600660008473ffffffffffffffffffffffffffffffffffffffff1673ffffffffffffffffffffffffffffffffffffffff168152602001908152602001600020600083815260200190815260200160002060009054906101000a900460ff16156117d357600090506118e5565b60008060006117e185611028565b50509250925092506000600260009054906101000a900473ffffffffffffffffffffffffffffffffffffffff1673ffffffffffffffffffffffffffffffffffffffff16634ee2cd7e88866040518363ffffffff1660e01b8152600401808373ffffffffffffffffffffffffffffffffffffffff1681526020018281526020019250505060206040518083038186803b15801561187c57600080fd5b505afa158015611890573d6000803e3d6000fd5b505050506040513d60208110156118a657600080fd5b810190808051906020019092919050505090506118de836118d083856123ae90919063ffffffff16565b61243490919063ffffffff16565b9450505050505b92915050565b60006118fe6118f86122ee565b83611765565b9050919050565b600061191082611cc6565b611918610e15565b11159050919050565b6119296122ee565b73ffffffffffffffffffffffffffffffffffffffff1660008054906101000a900473ffffffffffffffffffffffffffffffffffffffff1673ffffffffffffffffffffffffffffffffffffffff16146119e9576040517f08c379a00000000000000000000000000000000000000000000000000000000081526004018080602001828103825260208152602001807f4f776e61626c653a2063616c6c6572206973206e6f7420746865206f776e657281525060200191505060405180910390fd5b600073ffffffffffffffffffffffffffffffffffffffff1660008054906101000a900473ffffffffffffffffffffffffffffffffffffffff1673ffffffffffffffffffffffffffffffffffffffff167f8be0079c531659141344cd1fd0a4f28419497f9722a3daafe3b4186f6b6457e060405160405180910390a360008060006101000a81548173ffffffffffffffffffffffffffffffffffffffff021916908373ffffffffffffffffffffffffffffffffffffffff160217905550565b611aaf6122ee565b73ffffffffffffffffffffffffffffffffffffffff1660008054906101000a900473ffffffffffffffffffffffffffffffffffffffff1673ffffffffffffffffffffffffffffffffffffffff1614611b6f576040517f08c379a00000000000000000000000000000000000000000000000000000000081526004018080602001828103825260208152602001807f4f776e61626c653a2063616c6c6572206973206e6f7420746865206f776e657281525060200191505060405180910390fd5b60005b82829050811015611c4757611bb9838383818110611b8c57fe5b9050602002013573ffffffffffffffffffffffffffffffffffffffff16600461247e90919063ffffffff16565b507fcf3473b85df1594d47b6958f29a32bea0abff9dd68296f7bf33443646793cfd8838383818110611be757fe5b9050602002013573ffffffffffffffffffffffffffffffffffffffff166000604051808373ffffffffffffffffffffffffffffffffffffffff16815260200182151581526020019250505060405180910390a18080600101915050611b72565b505050565b60008060009054906101000a900473ffffffffffffffffffffffffffffffffffffffff16905090565b6000611c8160046124ae565b905090565b6000611c9c8260046124c390919063ffffffff16565b9050919050565b6000611cb98260046124dd90919063ffffffff16565b9050919050565b610e1081565b600080611cd283611028565b94505050505062eff1008101915050919050565b6000600380549050905090565b611cfb6122ee565b73ffffffffffffffffffffffffffffffffffffffff1660008054906101000a900473ffffffffffffffffffffffffffffffffffffffff1673ffffffffffffffffffffffffffffffffffffffff1614611dbb576040517f08c379a00000000000000000000000000000000000000000000000000000000081526004018080602001828103825260208152602001807f4f776e61626c653a2063616c6c6572206973206e6f7420746865206f776e657281525060200191505060405180910390fd5b600073ffffffffffffffffffffffffffffffffffffffff168173ffffffffffffffffffffffffffffffffffffffff161415611e41576040517f08c379a00000000000000000000000000000000000000000000000000000000081526004018080602001828103825260268152602001806128c56026913960400191505060405180910390fd5b8073ffffffffffffffffffffffffffffffffffffffff1660008054906101000a900473ffffffffffffffffffffffffffffffffffffffff1673ffffffffffffffffffffffffffffffffffffffff167f8be0079c531659141344cd1fd0a4f28419497f9722a3daafe3b4186f6b6457e060405160405180910390a3806000806101000a81548173ffffffffffffffffffffffffffffffffffffffff021916908373ffffffffffffffffffffffffffffffffffffffff16021790555050565b60038181548110611f0e57600080fd5b90600052602060002090600502016000915090508060000154908060010154908060020154908060030154908060040154905085565b611f4c6122ee565b73ffffffffffffffffffffffffffffffffffffffff1660008054906101000a900473ffffffffffffffffffffffffffffffffffffffff1673ffffffffffffffffffffffffffffffffffffffff161461200c576040517f08c379a00000000000000000000000000000000000000000000000000000000081526004018080602001828103825260208152602001807f4f776e61626c653a2063616c6c6572206973206e6f7420746865206f776e657281525060200191505060405180910390fd5b61201581611905565b15612088576040517f08c379a00000000000000000000000000000000000000000000000000000000081526004018080602001828103825260098152602001807f546f6f206561726c79000000000000000000000000000000000000000000000081525060200191505060405180910390fd5b6007600082815260200190815260200160002060009054906101000a900460ff161561211c576040517f08c379a000000000000000000000000000000000000000000000000000000000815260040180806020018281038252600f8152602001807f416c726561647920647261696e6564000000000000000000000000000000000081525060200191505060405180910390fd5b60008061212883611028565b50935093505050600061214482846122a490919063ffffffff16565b905060016007600086815260200190815260200160002060006101000a81548160ff02191690831515021790555061217a6122ee565b73ffffffffffffffffffffffffffffffffffffffff166108fc829081150290604051600060405180830381858888f193505050501580156121bf573d6000803e3d6000fd5b507f59e8338caf229e1a42e04872a316d44c6cbae9d57dda07745a30f510423f1b5b84826121eb610e15565b60405180848152602001838152602001828152602001935050505060405180910390a150505050565b60005b8282905081101561224a5761223d83838381811061223157fe5b90506020020135611f44565b8080600101915050612217565b505050565b60066020528160005260406000206020528060005260406000206000915091509054906101000a900460ff1681565b600260009054906101000a900473ffffffffffffffffffffffffffffffffffffffff1681565b60006122e683836040518060400160405280601e81526020017f536166654d6174683a207375627472616374696f6e206f766572666c6f77000081525061250d565b905092915050565b600033905090565b600080828401905083811015612374576040517f08c379a000000000000000000000000000000000000000000000000000000000815260040180806020018281038252601b8152602001807f536166654d6174683a206164646974696f6e206f766572666c6f77000000000081525060200191505060405180910390fd5b8091505092915050565b60006123a6836000018373ffffffffffffffffffffffffffffffffffffffff1660001b6125cd565b905092915050565b6000808314156123c1576000905061242e565b60008284029050828482816123d257fe5b0414612429576040517f08c379a00000000000000000000000000000000000000000000000000000000081526004018080602001828103825260218152602001806128eb6021913960400191505060405180910390fd5b809150505b92915050565b600061247683836040518060400160405280601a81526020017f536166654d6174683a206469766973696f6e206279207a65726f00000000000081525061263d565b905092915050565b60006124a6836000018373ffffffffffffffffffffffffffffffffffffffff1660001b612703565b905092915050565b60006124bc826000016127eb565b9050919050565b60006124d283600001836127fc565b60001c905092915050565b6000612505836000018373ffffffffffffffffffffffffffffffffffffffff1660001b61287f565b905092915050565b60008383111582906125ba576040517f08c379a00000000000000000000000000000000000000000000000000000000081526004018080602001828103825283818151815260200191508051906020019080838360005b8381101561257f578082015181840152602081019050612564565b50505050905090810190601f1680156125ac5780820380516001836020036101000a031916815260200191505b509250505060405180910390fd5b5060008385039050809150509392505050565b60006125d9838361287f565b612632578260000182908060018154018082558091505060019003906000526020600020016000909190919091505582600001805490508360010160008481526020019081526020016000208190555060019050612637565b600090505b92915050565b600080831182906126e9576040517f08c379a00000000000000000000000000000000000000000000000000000000081526004018080602001828103825283818151815260200191508051906020019080838360005b838110156126ae578082015181840152602081019050612693565b50505050905090810190601f1680156126db5780820380516001836020036101000a031916815260200191505b509250505060405180910390fd5b5060008385816126f557fe5b049050809150509392505050565b600080836001016000848152602001908152602001600020549050600081146127df576000600182039050600060018660000180549050039050600086600001828154811061274e57fe5b906000526020600020015490508087600001848154811061276b57fe5b90600052602060002001819055506001830187600101600083815260200190815260200160002081905550866000018054806127a357fe5b600190038181906000526020600020016000905590558660010160008781526020019081526020016000206000905560019450505050506127e5565b60009150505b92915050565b600081600001805490509050919050565b60008183600001805490501161285d576040517f08c379a00000000000000000000000000000000000000000000000000000000081526004018080602001828103825260228152602001806128a36022913960400191505060405180910390fd5b82600001828154811061286c57fe5b9060005260206000200154905092915050565b60008083600101600084815260200190815260200160002054141590509291505056fe456e756d657261626c655365743a20696e646578206f7574206f6620626f756e64734f776e61626c653a206e6577206f776e657220697320746865207a65726f2061646472657373536166654d6174683a206d756c7469706c69636174696f6e206f766572666c6f77436c61696d3a20756e61626c6520746f2073656e642076616c75652c20726563697069656e74206d61792068617665207265766572746564a26469706673582212203c51ca8c60effdc6d9d95ed77b51fe0da19822576fa8f7fde12d0827f6ddae7f64736f6c63430007060033",
  "immutableReferences": {},
  "source": "// SPDX-License-Identifier: UNLICENSED\r\n\r\npragma solidity ^0.7.5;\r\n\r\nimport \"@openzeppelin/contracts/access/Ownable.sol\";\r\nimport \"@openzeppelin/contracts/utils/ReentrancyGuard.sol\";\r\nimport \"@openzeppelin/contracts/utils/EnumerableSet.sol\";\r\nimport \"@openzeppelin/contracts/math/SafeMath.sol\";\r\n\r\nimport \"./interfaces/IToken.sol\";\r\n\r\ncontract Reward is Ownable, ReentrancyGuard {\r\n\r\n  using SafeMath for uint;\r\n\r\n  using EnumerableSet for EnumerableSet.AddressSet;\r\n\r\n  struct EthReward {\r\n    uint snapshotId;\r\n    uint totalSupplyAtSnapshot;\r\n    uint rewardAmount;\r\n    uint claimedAmount;\r\n    uint timestamp;\r\n  }\r\n\r\n  uint public constant CLAIM_DEADLINE = 182 days;\r\n\r\n  uint public constant MIN_SNAPSHOT_INTERVAL = 1 hours; //adjust depending on the network\r\n\r\n  IToken public token;\r\n\r\n  EthReward[] public rewards;\r\n\r\n  // not eligible for rewards\r\n  EnumerableSet.AddressSet private _blacklist;\r\n\r\n  // user -> reward id -> claimed\r\n  mapping(address => mapping(uint => bool)) public claimedRewards;\r\n\r\n  // reward id -> drained\r\n  mapping(uint => bool) private drained;\r\n\r\n  uint lastSnapshot;\r\n\r\n  event Deposit(address _who, uint _amount, uint _timestamp);\r\n  event NewToken(address _token, uint _timestamp);\r\n  event NewReward(uint _rewardId, uint _snapshotId, uint _amount, uint _timestamp);\r\n  event Claimed(address indexed _who, uint indexed _rewardId, uint _amount, uint _timestamp);\r\n  event Drained(uint _rewardId, uint _amount, uint _timestamp);\r\n  event Blacklisted(address _address, bool _blacklisted);\r\n\r\n  constructor(address _token)\r\n  {\r\n//    lastSnapshot = _getNow(); test\r\n    setToken(_token);\r\n  }\r\n\r\n  function setToken(address _token)\r\n  public\r\n  onlyOwner\r\n  {\r\n    require(_token != address(0), \"Invalid address\");\r\n\r\n    token = IToken(_token);\r\n    emit NewToken(_token, _getNow());\r\n  }\r\n\r\n  receive()\r\n  external\r\n  payable\r\n  {\r\n    _deposit(msg.value);\r\n    emit Deposit(msg.sender, msg.value, _getNow());\r\n  }\r\n\r\n  function claim(uint _rewardId)\r\n  public\r\n  nonReentrant\r\n  {\r\n    require(!claimedRewards[_msgSender()][_rewardId], \"Already claimed\");\r\n    require(beforeDeadline(_rewardId), \"Too late\");\r\n\r\n    uint myShare = getMyShare(_rewardId);\r\n    require(myShare > 0, \"Nothing to claim\");\r\n\r\n    EthReward storage reward = rewards[_rewardId];\r\n    reward.claimedAmount = reward.claimedAmount.add(myShare);\r\n\r\n    claimedRewards[_msgSender()][_rewardId] = true;\r\n\r\n    // solhint-disable-next-line avoid-low-level-calls, avoid-call-value\r\n    (bool success,) = _msgSender().call{value : myShare}(\"\");\r\n    require(success, \"Claim: unable to send value, recipient may have reverted\");\r\n\r\n    emit Claimed(_msgSender(), _rewardId, myShare, _getNow());\r\n  }\r\n\r\n  function claimBulk(uint[] calldata _rewardIds)\r\n  external\r\n  {\r\n    for (uint i = 0; i < _rewardIds.length; i++) {\r\n      claim(_rewardIds[i]);\r\n    }\r\n  }\r\n\r\n  function drain(uint _rewardId)\r\n  public\r\n  onlyOwner\r\n  {\r\n    require(!beforeDeadline(_rewardId), \"Too early\");\r\n    require(!drained[_rewardId], \"Already drained\");\r\n\r\n    (,, uint rewardAmount, uint claimedAmount,) = getRewardInfo(_rewardId);\r\n    uint unclaimedAmount = rewardAmount.sub(claimedAmount);\r\n    drained[_rewardId] = true;\r\n\r\n    _msgSender().transfer(unclaimedAmount);\r\n    emit Drained(_rewardId, unclaimedAmount, _getNow());\r\n  }\r\n\r\n  function drainBulk(uint[] calldata _rewardIds)\r\n  external\r\n  {\r\n    for (uint i = 0; i < _rewardIds.length; i++) {\r\n      drain(_rewardIds[i]);\r\n    }\r\n  }\r\n\r\n  function addBlacklist(address[] calldata _blacklisted)\r\n  external\r\n  onlyOwner\r\n  {\r\n    for (uint i = 0; i < _blacklisted.length; i++) {\r\n      _blacklist.add(_blacklisted[i]);\r\n      emit Blacklisted(_blacklisted[i], true);\r\n    }\r\n  }\r\n\r\n  function removeBlacklist(address[] calldata _blacklisted)\r\n  external\r\n  onlyOwner\r\n  {\r\n    for (uint i = 0; i < _blacklisted.length; i++) {\r\n      _blacklist.remove(_blacklisted[i]);\r\n      emit Blacklisted(_blacklisted[i], false);\r\n    }\r\n  }\r\n\r\n  function getNumberOfRewards()\r\n  public\r\n  view\r\n  returns (uint)\r\n  {\r\n    return rewards.length;\r\n  }\r\n\r\n  function getRewardInfo(uint _rewardId)\r\n  public\r\n  view\r\n  returns (uint snapshotId, uint totalSupplyAtSnapshot, uint rewardAmount, uint claimedAmount, uint timestamp)\r\n  {\r\n    require(_rewardId >= 0 && _rewardId < getNumberOfRewards(), \"Invalid reward id\");\r\n\r\n    EthReward memory reward = rewards[_rewardId];\r\n    snapshotId = reward.snapshotId;\r\n    totalSupplyAtSnapshot = reward.totalSupplyAtSnapshot;\r\n    rewardAmount = reward.rewardAmount;\r\n    claimedAmount = reward.claimedAmount;\r\n    timestamp = reward.timestamp;\r\n  }\r\n\r\n  function deadline(uint _rewardId)\r\n  public\r\n  view\r\n  returns (uint)\r\n  {\r\n    (,,,, uint timestamp) = getRewardInfo(_rewardId);\r\n    return timestamp + CLAIM_DEADLINE;\r\n  }\r\n\r\n  function beforeDeadline(uint _rewardId)\r\n  public\r\n  view\r\n  returns (bool)\r\n  {\r\n    return _getNow() <= deadline(_rewardId);\r\n  }\r\n\r\n  function getMyShare(uint _rewardId)\r\n  public\r\n  view\r\n  returns (uint)\r\n  {\r\n    return getShare(_msgSender(), _rewardId);\r\n  }\r\n\r\n  function getShare(address _account, uint _rewardId)\r\n  public\r\n  view\r\n  returns (uint)\r\n  {\r\n    if (claimedRewards[_account][_rewardId]) {\r\n      return 0;\r\n    }\r\n    (uint snapshotId, uint totalSupplyAtSnapshot, uint rewardAmount, ,) = getRewardInfo(_rewardId);\r\n    uint balanceAtSnapshot = token.balanceOfAt(_account, snapshotId);\r\n    return rewardAmount.mul(balanceAtSnapshot).div(totalSupplyAtSnapshot);\r\n  }\r\n\r\n  function blacklistContains(address _address)\r\n  public\r\n  view\r\n  returns (bool)\r\n  {\r\n    return _blacklist.contains(_address);\r\n  }\r\n\r\n  function blacklistLength()\r\n  public\r\n  view\r\n  returns (uint)\r\n  {\r\n    return _blacklist.length();\r\n  }\r\n\r\n  function blacklistAt(uint _index)\r\n  public\r\n  view\r\n  returns (address)\r\n  {\r\n    return _blacklist.at(_index);\r\n  }\r\n\r\n  function _deposit(uint _weiAmount)\r\n  internal\r\n  {\r\n    require(_weiAmount > 0, \"Must deposit something\");\r\n\r\n    uint timeElapsed = _getNow() - lastSnapshot;\r\n\r\n    // do the snapshot if at least 1 week passed since last snapshot\r\n//    if (timeElapsed >= MIN_SNAPSHOT_INTERVAL) {\r\n      uint snapshotId = token.snapshot();\r\n      uint totalSupplyAtSnapshot = token.totalSupplyAt(snapshotId);\r\n\r\n      uint newId = rewards.length;\r\n\r\n      // remove blacklisted balances from total supply\r\n      for (uint i = 0; i < blacklistLength(); i++) {\r\n        address blacklisted = blacklistAt(i);\r\n        uint balanceAtSnapshot = token.balanceOfAt(blacklisted, snapshotId);\r\n        totalSupplyAtSnapshot = totalSupplyAtSnapshot.sub(balanceAtSnapshot);\r\n        claimedRewards[blacklisted][newId] = true;\r\n      }\r\n\r\n      EthReward memory newReward = EthReward({\r\n        snapshotId : snapshotId,\r\n        totalSupplyAtSnapshot : totalSupplyAtSnapshot,\r\n        rewardAmount : _weiAmount,\r\n        claimedAmount : 0,\r\n        timestamp : _getNow()\r\n        });\r\n\r\n      rewards.push(newReward);\r\n\r\n      lastSnapshot = _getNow();\r\n\r\n      emit NewReward(newId, snapshotId, _weiAmount, _getNow());\r\n//    }\r\n  }\r\n\r\n  function _getNow() internal view returns (uint) {\r\n    return block.timestamp;\r\n  }\r\n}",
  "sourcePath": "C:/Users/pauli/Projects/BinanceX/contracts/Reward.sol",
  "compiler": {
    "name": "solc",
    "version": "0.7.6+commit.7338295f.Emscripten.clang"
  },
  "schemaVersion": "3.3.2",
  "updatedAt": "2020-12-17T18:55:56.842Z",
  "networkType": "ethereum",
  "devdoc": {
    "kind": "dev",
    "methods": {
      "owner()": {
        "details": "Returns the address of the current owner."
      },
      "renounceOwnership()": {
        "details": "Leaves the contract without owner. It will not be possible to call `onlyOwner` functions anymore. Can only be called by the current owner. NOTE: Renouncing ownership will leave the contract without an owner, thereby removing any functionality that is only available to the owner."
      },
      "transferOwnership(address)": {
        "details": "Transfers ownership of the contract to a new account (`newOwner`). Can only be called by the current owner."
      }
    },
    "version": 1
  },
  "userdoc": {
    "kind": "user",
    "methods": {},
    "version": 1
  }
}