{
  "contractName": "Vault",
  "abi": [
    {
      "inputs": [
        {
          "internalType": "address",
          "name": "_lpToken",
          "type": "address"
        },
        {
          "internalType": "address",
          "name": "_rewardToken",
          "type": "address"
        },
        {
          "internalType": "address",
          "name": "_WETH",
          "type": "address"
        },
        {
          "internalType": "address",
          "name": "_rewardContract",
          "type": "address"
        },
        {
          "internalType": "uint256",
          "name": "_withdrawalFeePercentage",
          "type": "uint256"
        },
        {
          "internalType": "uint256",
          "name": "_apyPercentage",
          "type": "uint256"
        }
      ],
      "stateMutability": "nonpayable",
      "type": "constructor"
    },
    {
      "anonymous": false,
      "inputs": [
        {
          "indexed": true,
          "internalType": "address",
          "name": "_who",
          "type": "address"
        },
        {
          "indexed": false,
          "internalType": "uint256",
          "name": "_amountBurned",
          "type": "uint256"
        },
        {
          "indexed": false,
          "internalType": "uint256",
          "name": "_amountRewarded",
          "type": "uint256"
        },
        {
          "indexed": false,
          "internalType": "uint256",
          "name": "_timestamp",
          "type": "uint256"
        }
      ],
      "name": "BurnAndReward",
      "type": "event"
    },
    {
      "anonymous": false,
      "inputs": [
        {
          "indexed": true,
          "internalType": "address",
          "name": "previousOwner",
          "type": "address"
        },
        {
          "indexed": true,
          "internalType": "address",
          "name": "newOwner",
          "type": "address"
        }
      ],
      "name": "OwnershipTransferred",
      "type": "event"
    },
    {
      "anonymous": false,
      "inputs": [
        {
          "indexed": true,
          "internalType": "address",
          "name": "_who",
          "type": "address"
        },
        {
          "indexed": false,
          "internalType": "uint256",
          "name": "_amount",
          "type": "uint256"
        },
        {
          "indexed": false,
          "internalType": "uint256",
          "name": "_timestamp",
          "type": "uint256"
        }
      ],
      "name": "TokenClaim",
      "type": "event"
    },
    {
      "anonymous": false,
      "inputs": [
        {
          "indexed": true,
          "internalType": "address",
          "name": "_who",
          "type": "address"
        },
        {
          "indexed": false,
          "internalType": "uint256",
          "name": "_amount",
          "type": "uint256"
        },
        {
          "indexed": false,
          "internalType": "uint256",
          "name": "_timestamp",
          "type": "uint256"
        }
      ],
      "name": "TokenStake",
      "type": "event"
    },
    {
      "anonymous": false,
      "inputs": [
        {
          "indexed": true,
          "internalType": "address",
          "name": "_who",
          "type": "address"
        },
        {
          "indexed": false,
          "internalType": "uint256",
          "name": "_amount",
          "type": "uint256"
        },
        {
          "indexed": false,
          "internalType": "uint256",
          "name": "_timestamp",
          "type": "uint256"
        }
      ],
      "name": "TokenWithdraw",
      "type": "event"
    },
    {
      "inputs": [],
      "name": "DENOMINATOR",
      "outputs": [
        {
          "internalType": "uint256",
          "name": "",
          "type": "uint256"
        }
      ],
      "stateMutability": "view",
      "type": "function",
      "constant": true
    },
    {
      "inputs": [],
      "name": "ONE_YEAR",
      "outputs": [
        {
          "internalType": "uint32",
          "name": "",
          "type": "uint32"
        }
      ],
      "stateMutability": "view",
      "type": "function",
      "constant": true
    },
    {
      "inputs": [],
      "name": "WETH",
      "outputs": [
        {
          "internalType": "contract IWETH",
          "name": "",
          "type": "address"
        }
      ],
      "stateMutability": "view",
      "type": "function",
      "constant": true
    },
    {
      "inputs": [],
      "name": "apyPercentage",
      "outputs": [
        {
          "internalType": "uint256",
          "name": "",
          "type": "uint256"
        }
      ],
      "stateMutability": "view",
      "type": "function",
      "constant": true
    },
    {
      "inputs": [],
      "name": "enableStaking",
      "outputs": [
        {
          "internalType": "bool",
          "name": "",
          "type": "bool"
        }
      ],
      "stateMutability": "view",
      "type": "function",
      "constant": true
    },
    {
      "inputs": [],
      "name": "lpToken",
      "outputs": [
        {
          "internalType": "contract IUniswapV2Pair",
          "name": "",
          "type": "address"
        }
      ],
      "stateMutability": "view",
      "type": "function",
      "constant": true
    },
    {
      "inputs": [],
      "name": "owner",
      "outputs": [
        {
          "internalType": "address",
          "name": "",
          "type": "address"
        }
      ],
      "stateMutability": "view",
      "type": "function",
      "constant": true
    },
    {
      "inputs": [],
      "name": "renounceOwnership",
      "outputs": [],
      "stateMutability": "nonpayable",
      "type": "function"
    },
    {
      "inputs": [],
      "name": "rewardContract",
      "outputs": [
        {
          "internalType": "address",
          "name": "",
          "type": "address"
        }
      ],
      "stateMutability": "view",
      "type": "function",
      "constant": true
    },
    {
      "inputs": [],
      "name": "rewardToken",
      "outputs": [
        {
          "internalType": "contract IToken",
          "name": "",
          "type": "address"
        }
      ],
      "stateMutability": "view",
      "type": "function",
      "constant": true
    },
    {
      "inputs": [],
      "name": "totalStaked",
      "outputs": [
        {
          "internalType": "uint256",
          "name": "",
          "type": "uint256"
        }
      ],
      "stateMutability": "view",
      "type": "function",
      "constant": true
    },
    {
      "inputs": [
        {
          "internalType": "address",
          "name": "newOwner",
          "type": "address"
        }
      ],
      "name": "transferOwnership",
      "outputs": [],
      "stateMutability": "nonpayable",
      "type": "function"
    },
    {
      "inputs": [
        {
          "internalType": "address",
          "name": "",
          "type": "address"
        }
      ],
      "name": "userInfo",
      "outputs": [
        {
          "internalType": "uint112",
          "name": "stake",
          "type": "uint112"
        },
        {
          "internalType": "uint112",
          "name": "reward",
          "type": "uint112"
        },
        {
          "internalType": "uint64",
          "name": "lastUpdate",
          "type": "uint64"
        }
      ],
      "stateMutability": "view",
      "type": "function",
      "constant": true
    },
    {
      "inputs": [],
      "name": "withdrawalFeePercentage",
      "outputs": [
        {
          "internalType": "uint256",
          "name": "",
          "type": "uint256"
        }
      ],
      "stateMutability": "view",
      "type": "function",
      "constant": true
    },
    {
      "stateMutability": "payable",
      "type": "receive",
      "payable": true
    },
    {
      "inputs": [
        {
          "internalType": "uint256",
          "name": "_tokens",
          "type": "uint256"
        }
      ],
      "name": "stake",
      "outputs": [
        {
          "internalType": "bool",
          "name": "",
          "type": "bool"
        }
      ],
      "stateMutability": "nonpayable",
      "type": "function"
    },
    {
      "inputs": [
        {
          "internalType": "uint256",
          "name": "_tokens",
          "type": "uint256"
        }
      ],
      "name": "withdraw",
      "outputs": [
        {
          "internalType": "bool",
          "name": "",
          "type": "bool"
        }
      ],
      "stateMutability": "nonpayable",
      "type": "function"
    },
    {
      "inputs": [],
      "name": "emergencyWithdraw",
      "outputs": [
        {
          "internalType": "bool",
          "name": "",
          "type": "bool"
        }
      ],
      "stateMutability": "nonpayable",
      "type": "function"
    },
    {
      "inputs": [],
      "name": "claim",
      "outputs": [
        {
          "internalType": "bool",
          "name": "",
          "type": "bool"
        }
      ],
      "stateMutability": "nonpayable",
      "type": "function"
    },
    {
      "inputs": [
        {
          "internalType": "bool",
          "name": "_enable",
          "type": "bool"
        }
      ],
      "name": "setEnableStaking",
      "outputs": [],
      "stateMutability": "nonpayable",
      "type": "function"
    },
    {
      "inputs": [
        {
          "internalType": "address",
          "name": "_rewardToken",
          "type": "address"
        }
      ],
      "name": "setRewardToken",
      "outputs": [],
      "stateMutability": "nonpayable",
      "type": "function"
    },
    {
      "inputs": [
        {
          "internalType": "address",
          "name": "_rewardContract",
          "type": "address"
        }
      ],
      "name": "setRewardContract",
      "outputs": [],
      "stateMutability": "nonpayable",
      "type": "function"
    },
    {
      "inputs": [
        {
          "internalType": "uint256",
          "name": "_withdrawalFeePercentage",
          "type": "uint256"
        }
      ],
      "name": "setWithdrawalFeePercentage",
      "outputs": [],
      "stateMutability": "nonpayable",
      "type": "function"
    },
    {
      "inputs": [
        {
          "internalType": "uint256",
          "name": "_apyPercentage",
          "type": "uint256"
        }
      ],
      "name": "setApyPercentage",
      "outputs": [],
      "stateMutability": "nonpayable",
      "type": "function"
    },
    {
      "inputs": [
        {
          "internalType": "uint256",
          "name": "_amount",
          "type": "uint256"
        }
      ],
      "name": "drainEth",
      "outputs": [],
      "stateMutability": "nonpayable",
      "type": "function"
    },
    {
      "inputs": [
        {
          "internalType": "address",
          "name": "_token",
          "type": "address"
        },
        {
          "internalType": "uint256",
          "name": "_amount",
          "type": "uint256"
        }
      ],
      "name": "drainTokens",
      "outputs": [],
      "stateMutability": "nonpayable",
      "type": "function"
    },
    {
      "inputs": [],
      "name": "calculateRewards",
      "outputs": [
        {
          "internalType": "uint144",
          "name": "",
          "type": "uint144"
        }
      ],
      "stateMutability": "view",
      "type": "function",
      "constant": true
    },
    {
      "inputs": [
        {
          "internalType": "uint112",
          "name": "_stakedBalance",
          "type": "uint112"
        },
        {
          "internalType": "uint256",
          "name": "_timeElapsed",
          "type": "uint256"
        }
      ],
      "name": "calculateRewards",
      "outputs": [
        {
          "internalType": "uint144",
          "name": "",
          "type": "uint144"
        }
      ],
      "stateMutability": "view",
      "type": "function",
      "constant": true
    },
    {
      "inputs": [],
      "name": "getUserTotalRewards",
      "outputs": [
        {
          "internalType": "uint144",
          "name": "",
          "type": "uint144"
        }
      ],
      "stateMutability": "view",
      "type": "function",
      "constant": true
    },
    {
      "inputs": [],
      "name": "getUserInfo",
      "outputs": [
        {
          "internalType": "uint112",
          "name": "",
          "type": "uint112"
        },
        {
          "internalType": "uint112",
          "name": "",
          "type": "uint112"
        },
        {
          "internalType": "uint64",
          "name": "",
          "type": "uint64"
        }
      ],
      "stateMutability": "view",
      "type": "function",
      "constant": true
    },
    {
      "inputs": [],
      "name": "getUserInfoFull",
      "outputs": [
        {
          "internalType": "uint112",
          "name": "",
          "type": "uint112"
        },
        {
          "internalType": "uint112",
          "name": "",
          "type": "uint112"
        },
        {
          "internalType": "uint64",
          "name": "",
          "type": "uint64"
        },
        {
          "internalType": "uint144",
          "name": "",
          "type": "uint144"
        },
        {
          "internalType": "uint256",
          "name": "",
          "type": "uint256"
        },
        {
          "internalType": "uint256",
          "name": "",
          "type": "uint256"
        }
      ],
      "stateMutability": "view",
      "type": "function",
      "constant": true
    },
    {
      "inputs": [],
      "name": "getLpAllowance",
      "outputs": [
        {
          "internalType": "uint256",
          "name": "",
          "type": "uint256"
        }
      ],
      "stateMutability": "view",
      "type": "function",
      "constant": true
    }
  ],
  "bytecode": "0x60806040523480156200001157600080fd5b506040516200463b3803806200463b833981810160405260c08110156200003757600080fd5b8101908080519060200190929190805190602001909291908051906020019092919080519060200190929190805190602001909291908051906020019092919050505060006200008c6200037160201b60201c565b9050806000806101000a81548173ffffffffffffffffffffffffffffffffffffffff021916908373ffffffffffffffffffffffffffffffffffffffff1602179055508073ffffffffffffffffffffffffffffffffffffffff16600073ffffffffffffffffffffffffffffffffffffffff167f8be0079c531659141344cd1fd0a4f28419497f9722a3daafe3b4186f6b6457e060405160405180910390a35060018081905550600073ffffffffffffffffffffffffffffffffffffffff168673ffffffffffffffffffffffffffffffffffffffff1614156200016c57600080fd5b85600360006101000a81548173ffffffffffffffffffffffffffffffffffffffff021916908373ffffffffffffffffffffffffffffffffffffffff160217905550600360009054906101000a900473ffffffffffffffffffffffffffffffffffffffff1673ffffffffffffffffffffffffffffffffffffffff16630dfe16816040518163ffffffff1660e01b815260040160206040518083038186803b1580156200021657600080fd5b505afa1580156200022b573d6000803e3d6000fd5b505050506040513d60208110156200024257600080fd5b8101908080519060200190929190505050600760006101000a81548173ffffffffffffffffffffffffffffffffffffffff021916908373ffffffffffffffffffffffffffffffffffffffff160217905550600073ffffffffffffffffffffffffffffffffffffffff168473ffffffffffffffffffffffffffffffffffffffff161415620002ce57600080fd5b83600560006101000a81548173ffffffffffffffffffffffffffffffffffffffff021916908373ffffffffffffffffffffffffffffffffffffffff16021790555062000320856200037960201b60201c565b6200033183620004c960201b60201c565b62000342826200061960201b60201c565b6200035381620006f460201b60201c565b620003656001620007cf60201b60201c565b505050505050620008bd565b600033905090565b620003896200037160201b60201c565b73ffffffffffffffffffffffffffffffffffffffff1660008054906101000a900473ffffffffffffffffffffffffffffffffffffffff1673ffffffffffffffffffffffffffffffffffffffff16146200044a576040517f08c379a00000000000000000000000000000000000000000000000000000000081526004018080602001828103825260208152602001807f4f776e61626c653a2063616c6c6572206973206e6f7420746865206f776e657281525060200191505060405180910390fd5b600073ffffffffffffffffffffffffffffffffffffffff168173ffffffffffffffffffffffffffffffffffffffff1614156200048557600080fd5b80600460006101000a81548173ffffffffffffffffffffffffffffffffffffffff021916908373ffffffffffffffffffffffffffffffffffffffff16021790555050565b620004d96200037160201b60201c565b73ffffffffffffffffffffffffffffffffffffffff1660008054906101000a900473ffffffffffffffffffffffffffffffffffffffff1673ffffffffffffffffffffffffffffffffffffffff16146200059a576040517f08c379a00000000000000000000000000000000000000000000000000000000081526004018080602001828103825260208152602001807f4f776e61626c653a2063616c6c6572206973206e6f7420746865206f776e657281525060200191505060405180910390fd5b600073ffffffffffffffffffffffffffffffffffffffff168173ffffffffffffffffffffffffffffffffffffffff161415620005d557600080fd5b80600660006101000a81548173ffffffffffffffffffffffffffffffffffffffff021916908373ffffffffffffffffffffffffffffffffffffffff16021790555050565b620006296200037160201b60201c565b73ffffffffffffffffffffffffffffffffffffffff1660008054906101000a900473ffffffffffffffffffffffffffffffffffffffff1673ffffffffffffffffffffffffffffffffffffffff1614620006ea576040517f08c379a00000000000000000000000000000000000000000000000000000000081526004018080602001828103825260208152602001807f4f776e61626c653a2063616c6c6572206973206e6f7420746865206f776e657281525060200191505060405180910390fd5b80600a8190555050565b620007046200037160201b60201c565b73ffffffffffffffffffffffffffffffffffffffff1660008054906101000a900473ffffffffffffffffffffffffffffffffffffffff1673ffffffffffffffffffffffffffffffffffffffff1614620007c5576040517f08c379a00000000000000000000000000000000000000000000000000000000081526004018080602001828103825260208152602001807f4f776e61626c653a2063616c6c6572206973206e6f7420746865206f776e657281525060200191505060405180910390fd5b8060098190555050565b620007df6200037160201b60201c565b73ffffffffffffffffffffffffffffffffffffffff1660008054906101000a900473ffffffffffffffffffffffffffffffffffffffff1673ffffffffffffffffffffffffffffffffffffffff1614620008a0576040517f08c379a00000000000000000000000000000000000000000000000000000000081526004018080602001828103825260208152602001807f4f776e61626c653a2063616c6c6572206973206e6f7420746865206f776e657281525060200191505060405180910390fd5b80600760146101000a81548160ff02191690831515021790555050565b613d6e80620008cd6000396000f3fe6080604052600436106101dc5760003560e01c8063817b1cd211610102578063c3ebaadc11610095578063db2e21bc11610064578063db2e21bc1461094e578063f1dab0b61461097b578063f2fde38b146109a6578063f7c618c1146109f7576101e3565b8063c3ebaadc1461081d578063c53d425a146108a9578063ca5236fc146108e4578063d11aca6214610921576101e3565b806394da662f116100d157806394da662f14610711578063a694fc3a1461074c578063ad5c46481461079d578063be68d328146107de576101e3565b8063817b1cd2146106295780638aee8127146106545780638da5cb5b146106a5578063918f8674146106e6576101e3565b806351508f0a1161017a5780636ea69d62116101495780636ea69d62146105295780636f06899e1461056a578063715018a6146105e757806378922c8f146105fe576101e3565b806351508f0a146103f95780635d8d15851461044a5780635fb0ea90146104ad5780635fcbd285146104e8576101e3565b80631959a002116101b65780631959a0021461029f5780632e1a7d4d1461033c5780633e50de301461038d5780634e71d92d146103cc576101e3565b806306382733146101e85780630b973b2a1461024357806316d3bfbb1461026e576101e3565b366101e357005b600080fd5b3480156101f457600080fd5b506102416004803603604081101561020b57600080fd5b81019080803573ffffffffffffffffffffffffffffffffffffffff16906020019092919080359060200190929190505050610a38565b005b34801561024f57600080fd5b50610258610d3f565b6040518082815260200191505060405180910390f35b34801561027a57600080fd5b50610283610d45565b604051808263ffffffff16815260200191505060405180910390f35b3480156102ab57600080fd5b506102ee600480360360208110156102c257600080fd5b81019080803573ffffffffffffffffffffffffffffffffffffffff169060200190929190505050610d4d565b60405180846dffffffffffffffffffffffffffff168152602001836dffffffffffffffffffffffffffff1681526020018267ffffffffffffffff168152602001935050505060405180910390f35b34801561034857600080fd5b506103756004803603602081101561035f57600080fd5b8101908080359060200190929190505050610dbf565b60405180821515815260200191505060405180910390f35b34801561039957600080fd5b506103a2610e67565b604051808271ffffffffffffffffffffffffffffffffffff16815260200191505060405180910390f35b3480156103d857600080fd5b506103e1610fa6565b60405180821515815260200191505060405180910390f35b34801561040557600080fd5b506104486004803603602081101561041c57600080fd5b81019080803573ffffffffffffffffffffffffffffffffffffffff1690602001909291905050506111f3565b005b34801561045657600080fd5b5061045f611339565b60405180846dffffffffffffffffffffffffffff168152602001836dffffffffffffffffffffffffffff1681526020018267ffffffffffffffff168152602001935050505060405180910390f35b3480156104b957600080fd5b506104e6600480360360208110156104d057600080fd5b8101908080359060200190929190505050611460565b005b3480156104f457600080fd5b506104fd611532565b604051808273ffffffffffffffffffffffffffffffffffffffff16815260200191505060405180910390f35b34801561053557600080fd5b5061053e611558565b604051808273ffffffffffffffffffffffffffffffffffffffff16815260200191505060405180910390f35b34801561057657600080fd5b506105bd6004803603604081101561058d57600080fd5b8101908080356dffffffffffffffffffffffffffff1690602001909291908035906020019092919050505061157e565b604051808271ffffffffffffffffffffffffffffffffffff16815260200191505060405180910390f35b3480156105f357600080fd5b506105fc611847565b005b34801561060a57600080fd5b506106136119cd565b6040518082815260200191505060405180910390f35b34801561063557600080fd5b5061063e6119d3565b6040518082815260200191505060405180910390f35b34801561066057600080fd5b506106a36004803603602081101561067757600080fd5b81019080803573ffffffffffffffffffffffffffffffffffffffff1690602001909291905050506119d9565b005b3480156106b157600080fd5b506106ba611b1f565b604051808273ffffffffffffffffffffffffffffffffffffffff16815260200191505060405180910390f35b3480156106f257600080fd5b506106fb611b48565b6040518082815260200191505060405180910390f35b34801561071d57600080fd5b5061074a6004803603602081101561073457600080fd5b8101908080359060200190929190505050611b4e565b005b34801561075857600080fd5b506107856004803603602081101561076f57600080fd5b8101908080359060200190929190505050611c60565b60405180821515815260200191505060405180910390f35b3480156107a957600080fd5b506107b2612012565b604051808273ffffffffffffffffffffffffffffffffffffffff16815260200191505060405180910390f35b3480156107ea57600080fd5b506107f3612038565b604051808271ffffffffffffffffffffffffffffffffffff16815260200191505060405180910390f35b34801561082957600080fd5b506108326121a1565b60405180876dffffffffffffffffffffffffffff168152602001866dffffffffffffffffffffffffffff1681526020018567ffffffffffffffff1681526020018471ffffffffffffffffffffffffffffffffffff168152602001838152602001828152602001965050505050505060405180910390f35b3480156108b557600080fd5b506108e2600480360360208110156108cc57600080fd5b8101908080359060200190929190505050612478565b005b3480156108f057600080fd5b5061091f6004803603602081101561090757600080fd5b8101908080351515906020019092919050505061254a565b005b34801561092d57600080fd5b5061093661262f565b60405180821515815260200191505060405180910390f35b34801561095a57600080fd5b50610963612642565b60405180821515815260200191505060405180910390f35b34801561098757600080fd5b506109906127b8565b6040518082815260200191505060405180910390f35b3480156109b257600080fd5b506109f5600480360360208110156109c957600080fd5b81019080803573ffffffffffffffffffffffffffffffffffffffff1690602001909291905050506128a1565b005b348015610a0357600080fd5b50610a0c612aac565b604051808273ffffffffffffffffffffffffffffffffffffffff16815260200191505060405180910390f35b610a40612ad2565b73ffffffffffffffffffffffffffffffffffffffff1660008054906101000a900473ffffffffffffffffffffffffffffffffffffffff1673ffffffffffffffffffffffffffffffffffffffff1614610b00576040517f08c379a00000000000000000000000000000000000000000000000000000000081526004018080602001828103825260208152602001807f4f776e61626c653a2063616c6c6572206973206e6f7420746865206f776e657281525060200191505060405180910390fd5b600360009054906101000a900473ffffffffffffffffffffffffffffffffffffffff1673ffffffffffffffffffffffffffffffffffffffff168273ffffffffffffffffffffffffffffffffffffffff161415610c8e5760008273ffffffffffffffffffffffffffffffffffffffff166370a08231306040518263ffffffff1660e01b8152600401808273ffffffffffffffffffffffffffffffffffffffff16815260200191505060206040518083038186803b158015610bbf57600080fd5b505afa158015610bd3573d6000803e3d6000fd5b505050506040513d6020811015610be957600080fd5b810190808051906020019092919050505090506000610c1360085483612ada90919063ffffffff16565b905080831115610c8b576040517f08c379a00000000000000000000000000000000000000000000000000000000081526004018080602001828103825260188152602001807f43616e6e6f7420647261696e207375636820616d6f756e74000000000000000081525060200191505060405180910390fd5b50505b8173ffffffffffffffffffffffffffffffffffffffff1663a9059cbb33836040518363ffffffff1660e01b8152600401808373ffffffffffffffffffffffffffffffffffffffff16815260200182815260200192505050602060405180830381600087803b158015610cff57600080fd5b505af1158015610d13573d6000803e3d6000fd5b505050506040513d6020811015610d2957600080fd5b8101908080519060200190929190505050505050565b60095481565b6301e1338081565b60026020528060005260406000206000915090508060000160009054906101000a90046dffffffffffffffffffffffffffff169080600001600e9054906101000a90046dffffffffffffffffffffffffffff16908060010160009054906101000a900467ffffffffffffffff16905083565b600060026001541415610e3a576040517f08c379a000000000000000000000000000000000000000000000000000000000815260040180806020018281038252601f8152602001807f5265656e7472616e637947756172643a207265656e7472616e742063616c6c0081525060200191505060405180910390fd5b600260018190555033610e4c81612b24565b610e563384612d13565b600191505060018081905550919050565b600080600260003373ffffffffffffffffffffffffffffffffffffffff1673ffffffffffffffffffffffffffffffffffffffff1681526020019081526020016000206040518060600160405290816000820160009054906101000a90046dffffffffffffffffffffffffffff166dffffffffffffffffffffffffffff166dffffffffffffffffffffffffffff16815260200160008201600e9054906101000a90046dffffffffffffffffffffffffffff166dffffffffffffffffffffffffffff166dffffffffffffffffffffffffffff1681526020016001820160009054906101000a900467ffffffffffffffff1667ffffffffffffffff1667ffffffffffffffff1681525050905060008160000151905060008260400151905060008167ffffffffffffffff1642039050610f9d838261157e565b94505050505090565b600060026001541415611021576040517f08c379a000000000000000000000000000000000000000000000000000000000815260040180806020018281038252601f8152602001807f5265656e7472616e637947756172643a207265656e7472616e742063616c6c0081525060200191505060405180910390fd5b60026001819055503361103381612b24565b6000600260003373ffffffffffffffffffffffffffffffffffffffff1673ffffffffffffffffffffffffffffffffffffffff1681526020019081526020016000209050600081600001600e9054906101000a90046dffffffffffffffffffffffffffff166dffffffffffffffffffffffffffff169050600082600001600e6101000a8154816dffffffffffffffffffffffffffff02191690836dffffffffffffffffffffffffffff160217905550600460009054906101000a900473ffffffffffffffffffffffffffffffffffffffff1673ffffffffffffffffffffffffffffffffffffffff166340c10f1933836040518363ffffffff1660e01b8152600401808373ffffffffffffffffffffffffffffffffffffffff16815260200182815260200192505050600060405180830381600087803b15801561117457600080fd5b505af1158015611188573d6000803e3d6000fd5b505050503373ffffffffffffffffffffffffffffffffffffffff167f30c2341ba3f2142e78472f07dcf018a42044ae1c2c2e7ce867b327257f07ef2b8242604051808381526020018281526020019250505060405180910390a2600193505050506001808190555090565b6111fb612ad2565b73ffffffffffffffffffffffffffffffffffffffff1660008054906101000a900473ffffffffffffffffffffffffffffffffffffffff1673ffffffffffffffffffffffffffffffffffffffff16146112bb576040517f08c379a00000000000000000000000000000000000000000000000000000000081526004018080602001828103825260208152602001807f4f776e61626c653a2063616c6c6572206973206e6f7420746865206f776e657281525060200191505060405180910390fd5b600073ffffffffffffffffffffffffffffffffffffffff168173ffffffffffffffffffffffffffffffffffffffff1614156112f557600080fd5b80600660006101000a81548173ffffffffffffffffffffffffffffffffffffffff021916908373ffffffffffffffffffffffffffffffffffffffff16021790555050565b600080600080600260003373ffffffffffffffffffffffffffffffffffffffff1673ffffffffffffffffffffffffffffffffffffffff1681526020019081526020016000206040518060600160405290816000820160009054906101000a90046dffffffffffffffffffffffffffff166dffffffffffffffffffffffffffff166dffffffffffffffffffffffffffff16815260200160008201600e9054906101000a90046dffffffffffffffffffffffffffff166dffffffffffffffffffffffffffff166dffffffffffffffffffffffffffff1681526020016001820160009054906101000a900467ffffffffffffffff1667ffffffffffffffff1667ffffffffffffffff1681525050905080600001518160200151826040015193509350935050909192565b611468612ad2565b73ffffffffffffffffffffffffffffffffffffffff1660008054906101000a900473ffffffffffffffffffffffffffffffffffffffff1673ffffffffffffffffffffffffffffffffffffffff1614611528576040517f08c379a00000000000000000000000000000000000000000000000000000000081526004018080602001828103825260208152602001807f4f776e61626c653a2063616c6c6572206973206e6f7420746865206f776e657281525060200191505060405180910390fd5b80600a8190555050565b600360009054906101000a900473ffffffffffffffffffffffffffffffffffffffff1681565b600660009054906101000a900473ffffffffffffffffffffffffffffffffffffffff1681565b600080600460009054906101000a900473ffffffffffffffffffffffffffffffffffffffff1673ffffffffffffffffffffffffffffffffffffffff166370a08231600360009054906101000a900473ffffffffffffffffffffffffffffffffffffffff166040518263ffffffff1660e01b8152600401808273ffffffffffffffffffffffffffffffffffffffff16815260200191505060206040518083038186803b15801561162c57600080fd5b505afa158015611640573d6000803e3d6000fd5b505050506040513d602081101561165657600080fd5b810190808051906020019092919050505090506000611716600360009054906101000a900473ffffffffffffffffffffffffffffffffffffffff1673ffffffffffffffffffffffffffffffffffffffff166318160ddd6040518163ffffffff1660e01b815260040160206040518083038186803b1580156116d657600080fd5b505afa1580156116ea573d6000803e3d6000fd5b505050506040513d602081101561170057600080fd5b8101908080519060200190929190505050613061565b9050600061175b6117566127106117486009548a6dffffffffffffffffffffffffffff1661311190919063ffffffff16565b61319790919063ffffffff16565b613061565b9050600061178283836dffffffffffffffffffffffffffff166131e190919063ffffffff16565b905060006117bd6117a461179f878561331090919063ffffffff16565b613403565b71ffffffffffffffffffffffffffffffffffff16613061565b905060006117f66301e1338063ffffffff166117d88a613061565b6dffffffffffffffffffffffffffff166131e190919063ffffffff16565b90506000611825611820846dffffffffffffffffffffffffffff168461331090919063ffffffff16565b613403565b6dffffffffffffffffffffffffffff1690508097505050505050505092915050565b61184f612ad2565b73ffffffffffffffffffffffffffffffffffffffff1660008054906101000a900473ffffffffffffffffffffffffffffffffffffffff1673ffffffffffffffffffffffffffffffffffffffff161461190f576040517f08c379a00000000000000000000000000000000000000000000000000000000081526004018080602001828103825260208152602001807f4f776e61626c653a2063616c6c6572206973206e6f7420746865206f776e657281525060200191505060405180910390fd5b600073ffffffffffffffffffffffffffffffffffffffff1660008054906101000a900473ffffffffffffffffffffffffffffffffffffffff1673ffffffffffffffffffffffffffffffffffffffff167f8be0079c531659141344cd1fd0a4f28419497f9722a3daafe3b4186f6b6457e060405160405180910390a360008060006101000a81548173ffffffffffffffffffffffffffffffffffffffff021916908373ffffffffffffffffffffffffffffffffffffffff160217905550565b600a5481565b60085481565b6119e1612ad2565b73ffffffffffffffffffffffffffffffffffffffff1660008054906101000a900473ffffffffffffffffffffffffffffffffffffffff1673ffffffffffffffffffffffffffffffffffffffff1614611aa1576040517f08c379a00000000000000000000000000000000000000000000000000000000081526004018080602001828103825260208152602001807f4f776e61626c653a2063616c6c6572206973206e6f7420746865206f776e657281525060200191505060405180910390fd5b600073ffffffffffffffffffffffffffffffffffffffff168173ffffffffffffffffffffffffffffffffffffffff161415611adb57600080fd5b80600460006101000a81548173ffffffffffffffffffffffffffffffffffffffff021916908373ffffffffffffffffffffffffffffffffffffffff16021790555050565b60008060009054906101000a900473ffffffffffffffffffffffffffffffffffffffff16905090565b61271081565b611b56612ad2565b73ffffffffffffffffffffffffffffffffffffffff1660008054906101000a900473ffffffffffffffffffffffffffffffffffffffff1673ffffffffffffffffffffffffffffffffffffffff1614611c16576040517f08c379a00000000000000000000000000000000000000000000000000000000081526004018080602001828103825260208152602001807f4f776e61626c653a2063616c6c6572206973206e6f7420746865206f776e657281525060200191505060405180910390fd5b3373ffffffffffffffffffffffffffffffffffffffff166108fc829081150290604051600060405180830381858888f19350505050158015611c5c573d6000803e3d6000fd5b5050565b6000600760149054906101000a900460ff16611ce4576040517f08c379a00000000000000000000000000000000000000000000000000000000081526004018080602001828103825260138152602001807f5374616b696e672069732064697361626c65640000000000000000000000000081525060200191505060405180910390fd5b60026001541415611d5d576040517f08c379a000000000000000000000000000000000000000000000000000000000815260040180806020018281038252601f8152602001807f5265656e7472616e637947756172643a207265656e7472616e742063616c6c0081525060200191505060405180910390fd5b600260018190555033611d6f81612b24565b600360009054906101000a900473ffffffffffffffffffffffffffffffffffffffff1673ffffffffffffffffffffffffffffffffffffffff166323b872dd3330866040518463ffffffff1660e01b8152600401808473ffffffffffffffffffffffffffffffffffffffff1681526020018373ffffffffffffffffffffffffffffffffffffffff1681526020018281526020019350505050602060405180830381600087803b158015611e2057600080fd5b505af1158015611e34573d6000803e3d6000fd5b505050506040513d6020811015611e4a57600080fd5b8101908080519060200190929190505050611ecd576040517f08c379a00000000000000000000000000000000000000000000000000000000081526004018080602001828103825260168152602001807f546f6b656e73207472616e73666572206661696c65640000000000000000000081525060200191505060405180910390fd5b6000600260003373ffffffffffffffffffffffffffffffffffffffff1673ffffffffffffffffffffffffffffffffffffffff1681526020019081526020016000209050611f59611f54858360000160009054906101000a90046dffffffffffffffffffffffffffff166dffffffffffffffffffffffffffff1661341890919063ffffffff16565b613061565b8160000160006101000a8154816dffffffffffffffffffffffffffff02191690836dffffffffffffffffffffffffffff160217905550611fa48460085461341890919063ffffffff16565b6008819055503373ffffffffffffffffffffffffffffffffffffffff167fe3a4c4ef6cb9895619a6191f7373682046b737d41f6552c830e7805b16075d838542604051808381526020018281526020019250505060405180910390a260019250505060018081905550919050565b600560009054906101000a900473ffffffffffffffffffffffffffffffffffffffff1681565b600080600260003373ffffffffffffffffffffffffffffffffffffffff1673ffffffffffffffffffffffffffffffffffffffff1681526020019081526020016000206040518060600160405290816000820160009054906101000a90046dffffffffffffffffffffffffffff166dffffffffffffffffffffffffffff166dffffffffffffffffffffffffffff16815260200160008201600e9054906101000a90046dffffffffffffffffffffffffffff166dffffffffffffffffffffffffffff166dffffffffffffffffffffffffffff1681526020016001820160009054906101000a900467ffffffffffffffff1667ffffffffffffffff1667ffffffffffffffff1681525050905061218b61218661214f610e67565b71ffffffffffffffffffffffffffffffffffff1683602001516dffffffffffffffffffffffffffff1661341890919063ffffffff16565b613061565b6dffffffffffffffffffffffffffff1691505090565b6000806000806000806000600260003373ffffffffffffffffffffffffffffffffffffffff1673ffffffffffffffffffffffffffffffffffffffff1681526020019081526020016000206040518060600160405290816000820160009054906101000a90046dffffffffffffffffffffffffffff166dffffffffffffffffffffffffffff166dffffffffffffffffffffffffffff16815260200160008201600e9054906101000a90046dffffffffffffffffffffffffffff166dffffffffffffffffffffffffffff166dffffffffffffffffffffffffffff1681526020016001820160009054906101000a900467ffffffffffffffff1667ffffffffffffffff1667ffffffffffffffff1681525050905060006122bc612038565b90506000600360009054906101000a900473ffffffffffffffffffffffffffffffffffffffff1673ffffffffffffffffffffffffffffffffffffffff166370a08231336040518263ffffffff1660e01b8152600401808273ffffffffffffffffffffffffffffffffffffffff16815260200191505060206040518083038186803b15801561234957600080fd5b505afa15801561235d573d6000803e3d6000fd5b505050506040513d602081101561237357600080fd5b810190808051906020019092919050505090506000600460009054906101000a900473ffffffffffffffffffffffffffffffffffffffff1673ffffffffffffffffffffffffffffffffffffffff166370a08231336040518263ffffffff1660e01b8152600401808273ffffffffffffffffffffffffffffffffffffffff16815260200191505060206040518083038186803b15801561241157600080fd5b505afa158015612425573d6000803e3d6000fd5b505050506040513d602081101561243b57600080fd5b8101908080519060200190929190505050905083600001518460200151856040015185858599509950995099509950995050505050909192939495565b612480612ad2565b73ffffffffffffffffffffffffffffffffffffffff1660008054906101000a900473ffffffffffffffffffffffffffffffffffffffff1673ffffffffffffffffffffffffffffffffffffffff1614612540576040517f08c379a00000000000000000000000000000000000000000000000000000000081526004018080602001828103825260208152602001807f4f776e61626c653a2063616c6c6572206973206e6f7420746865206f776e657281525060200191505060405180910390fd5b8060098190555050565b612552612ad2565b73ffffffffffffffffffffffffffffffffffffffff1660008054906101000a900473ffffffffffffffffffffffffffffffffffffffff1673ffffffffffffffffffffffffffffffffffffffff1614612612576040517f08c379a00000000000000000000000000000000000000000000000000000000081526004018080602001828103825260208152602001807f4f776e61626c653a2063616c6c6572206973206e6f7420746865206f776e657281525060200191505060405180910390fd5b80600760146101000a81548160ff02191690831515021790555050565b600760149054906101000a900460ff1681565b6000600260015414156126bd576040517f08c379a000000000000000000000000000000000000000000000000000000000815260040180806020018281038252601f8152602001807f5265656e7472616e637947756172643a207265656e7472616e742063616c6c0081525060200191505060405180910390fd5b60026001819055506000600260003373ffffffffffffffffffffffffffffffffffffffff1673ffffffffffffffffffffffffffffffffffffffff168152602001908152602001600020905060008160000160009054906101000a90046dffffffffffffffffffffffffffff169050600082600001600e6101000a8154816dffffffffffffffffffffffffffff02191690836dffffffffffffffffffffffffffff160217905550428260010160006101000a81548167ffffffffffffffff021916908367ffffffffffffffff1602179055506127a833826dffffffffffffffffffffffffffff16612d13565b6001925050506001808190555090565b6000600360009054906101000a900473ffffffffffffffffffffffffffffffffffffffff1673ffffffffffffffffffffffffffffffffffffffff1663dd62ed3e33306040518363ffffffff1660e01b8152600401808373ffffffffffffffffffffffffffffffffffffffff1681526020018273ffffffffffffffffffffffffffffffffffffffff1681526020019250505060206040518083038186803b15801561286157600080fd5b505afa158015612875573d6000803e3d6000fd5b505050506040513d602081101561288b57600080fd5b8101908080519060200190929190505050905090565b6128a9612ad2565b73ffffffffffffffffffffffffffffffffffffffff1660008054906101000a900473ffffffffffffffffffffffffffffffffffffffff1673ffffffffffffffffffffffffffffffffffffffff1614612969576040517f08c379a00000000000000000000000000000000000000000000000000000000081526004018080602001828103825260208152602001807f4f776e61626c653a2063616c6c6572206973206e6f7420746865206f776e657281525060200191505060405180910390fd5b600073ffffffffffffffffffffffffffffffffffffffff168173ffffffffffffffffffffffffffffffffffffffff1614156129ef576040517f08c379a0000000000000000000000000000000000000000000000000000000008152600401808060200182810382526026815260200180613c916026913960400191505060405180910390fd5b8073ffffffffffffffffffffffffffffffffffffffff1660008054906101000a900473ffffffffffffffffffffffffffffffffffffffff1673ffffffffffffffffffffffffffffffffffffffff167f8be0079c531659141344cd1fd0a4f28419497f9722a3daafe3b4186f6b6457e060405160405180910390a3806000806101000a81548173ffffffffffffffffffffffffffffffffffffffff021916908373ffffffffffffffffffffffffffffffffffffffff16021790555050565b600460009054906101000a900473ffffffffffffffffffffffffffffffffffffffff1681565b600033905090565b6000612b1c83836040518060400160405280601e81526020017f536166654d6174683a207375627472616374696f6e206f766572666c6f7700008152506134a0565b905092915050565b6000600260008373ffffffffffffffffffffffffffffffffffffffff1673ffffffffffffffffffffffffffffffffffffffff168152602001908152602001600020905060008160010160009054906101000a900467ffffffffffffffff1667ffffffffffffffff161415612bbe57428160010160006101000a81548167ffffffffffffffff021916908367ffffffffffffffff1602179055505b60008160000160009054906101000a90046dffffffffffffffffffffffffffff16905060008260010160009054906101000a900467ffffffffffffffff1690506000826dffffffffffffffffffffffffffff16118015612c285750428167ffffffffffffffff1614155b15612d0d5760008167ffffffffffffffff16420390506000612c4a848361157e565b9050612ca9612ca48271ffffffffffffffffffffffffffffffffffff1687600001600e9054906101000a90046dffffffffffffffffffffffffffff166dffffffffffffffffffffffffffff1661341890919063ffffffff16565b613061565b85600001600e6101000a8154816dffffffffffffffffffffffffffff02191690836dffffffffffffffffffffffffffff160217905550428560010160006101000a81548167ffffffffffffffff021916908367ffffffffffffffff16021790555050505b50505050565b6000600260008473ffffffffffffffffffffffffffffffffffffffff1673ffffffffffffffffffffffffffffffffffffffff16815260200190815260200160002090508060000160009054906101000a90046dffffffffffffffffffffffffffff166dffffffffffffffffffffffffffff16821115612ddd576040517f08c379a0000000000000000000000000000000000000000000000000000000008152600401808060200182810382526021815260200180613d186021913960400191505060405180910390fd5b6000612e08612710612dfa600a548661311190919063ffffffff16565b61319790919063ffffffff16565b90506000612e1f8285612ada90919063ffffffff16565b9050612e6a612e65858560000160009054906101000a90046dffffffffffffffffffffffffffff166dffffffffffffffffffffffffffff16612ada90919063ffffffff16565b613061565b8360000160006101000a8154816dffffffffffffffffffffffffffff02191690836dffffffffffffffffffffffffffff160217905550612eb584600854612ada90919063ffffffff16565b600881905550612ec482613560565b600360009054906101000a900473ffffffffffffffffffffffffffffffffffffffff1673ffffffffffffffffffffffffffffffffffffffff1663a9059cbb86836040518363ffffffff1660e01b8152600401808373ffffffffffffffffffffffffffffffffffffffff16815260200182815260200192505050602060405180830381600087803b158015612f5757600080fd5b505af1158015612f6b573d6000803e3d6000fd5b505050506040513d6020811015612f8157600080fd5b8101908080519060200190929190505050613004576040517f08c379a00000000000000000000000000000000000000000000000000000000081526004018080602001828103825260168152602001807f546f6b656e73207472616e73666572206661696c65640000000000000000000081525060200191505060405180910390fd5b8473ffffffffffffffffffffffffffffffffffffffff167fa50d41d074ce94f4240b13344e911203e7a2169e7f09812a0d70a882e7c633c78242604051808381526020018281526020019250505060405180910390a25050505050565b60007fffffffffffffffffffffffffffffffffffffffffffffffffffffffffffffffff6dffffffffffffffffffffffffffff16821115613109576040517f08c379a00000000000000000000000000000000000000000000000000000000081526004018080602001828103825260088152602001807f6f766572666c6f7700000000000000000000000000000000000000000000000081525060200191505060405180910390fd5b819050919050565b6000808314156131245760009050613191565b600082840290508284828161313557fe5b041461318c576040517f08c379a0000000000000000000000000000000000000000000000000000000008152600401808060200182810382526021815260200180613cf76021913960400191505060405180910390fd5b809150505b92915050565b60006131d983836040518060400160405280601a81526020017f536166654d6174683a206469766973696f6e206279207a65726f000000000000815250613b86565b905092915050565b6131e9613c4c565b6000826dffffffffffffffffffffffffffff161161326f576040517f08c379a00000000000000000000000000000000000000000000000000000000081526004018080602001828103825260208152602001807f4669786564506f696e743a204449565f42595f5a45524f5f4652414354494f4e81525060200191505060405180910390fd5b6040518060200160405280836dffffffffffffffffffffffffffff16607060ff16866dffffffffffffffffffffffffffff167bffffffffffffffffffffffffffffffffffffffffffffffffffffffff16901b7bffffffffffffffffffffffffffffffffffffffffffffffffffffffff16816132e657fe5b047bffffffffffffffffffffffffffffffffffffffffffffffffffffffff16815250905092915050565b613318613c7d565b600080831480613379575083600001517bffffffffffffffffffffffffffffffffffffffffffffffffffffffff16838486600001517bffffffffffffffffffffffffffffffffffffffffffffffffffffffff16029250828161337657fe5b04145b6133eb576040517f08c379a00000000000000000000000000000000000000000000000000000000081526004018080602001828103825260188152602001807f4669786564506f696e743a204d554c5f4f564552464c4f57000000000000000081525060200191505060405180910390fd5b60405180602001604052808281525091505092915050565b6000607060ff168260000151901c9050919050565b600080828401905083811015613496576040517f08c379a000000000000000000000000000000000000000000000000000000000815260040180806020018281038252601b8152602001807f536166654d6174683a206164646974696f6e206f766572666c6f77000000000081525060200191505060405180910390fd5b8091505092915050565b600083831115829061354d576040517f08c379a00000000000000000000000000000000000000000000000000000000081526004018080602001828103825283818151815260200191508051906020019080838360005b838110156135125780820151818401526020810190506134f7565b50505050905090810190601f16801561353f5780820380516001836020036101000a031916815260200191505b509250505060405180910390fd5b5060008385039050809150509392505050565b6000600360009054906101000a900473ffffffffffffffffffffffffffffffffffffffff1690506000600460009054906101000a900473ffffffffffffffffffffffffffffffffffffffff169050600360009054906101000a900473ffffffffffffffffffffffffffffffffffffffff1673ffffffffffffffffffffffffffffffffffffffff1663a9059cbb83856040518363ffffffff1660e01b8152600401808373ffffffffffffffffffffffffffffffffffffffff16815260200182815260200192505050602060405180830381600087803b15801561364157600080fd5b505af1158015613655573d6000803e3d6000fd5b505050506040513d602081101561366b57600080fd5b810190808051906020019092919050505050600080600360009054906101000a900473ffffffffffffffffffffffffffffffffffffffff1673ffffffffffffffffffffffffffffffffffffffff166389afcb44306040518263ffffffff1660e01b8152600401808273ffffffffffffffffffffffffffffffffffffffff1681526020019150506040805180830381600087803b15801561370a57600080fd5b505af115801561371e573d6000803e3d6000fd5b505050506040513d604081101561373457600080fd5b810190808051906020019092919080519060200190929190505050915091506000600760009054906101000a900473ffffffffffffffffffffffffffffffffffffffff1673ffffffffffffffffffffffffffffffffffffffff168473ffffffffffffffffffffffffffffffffffffffff16146137b057826137b2565b815b905060008473ffffffffffffffffffffffffffffffffffffffff166370a08231306040518263ffffffff1660e01b8152600401808273ffffffffffffffffffffffffffffffffffffffff16815260200191505060206040518083038186803b15801561381d57600080fd5b505afa158015613831573d6000803e3d6000fd5b505050506040513d602081101561384757600080fd5b81019080805190602001909291905050509050600460009054906101000a900473ffffffffffffffffffffffffffffffffffffffff1673ffffffffffffffffffffffffffffffffffffffff166342966c68826040518263ffffffff1660e01b815260040180828152602001915050600060405180830381600087803b1580156138cf57600080fd5b505af11580156138e3573d6000803e3d6000fd5b505050506000600560009054906101000a900473ffffffffffffffffffffffffffffffffffffffff1673ffffffffffffffffffffffffffffffffffffffff166370a08231306040518263ffffffff1660e01b8152600401808273ffffffffffffffffffffffffffffffffffffffff16815260200191505060206040518083038186803b15801561397257600080fd5b505afa158015613986573d6000803e3d6000fd5b505050506040513d602081101561399c57600080fd5b81019080805190602001909291905050509050600560009054906101000a900473ffffffffffffffffffffffffffffffffffffffff1673ffffffffffffffffffffffffffffffffffffffff16632e1a7d4d826040518263ffffffff1660e01b815260040180828152602001915050600060405180830381600087803b158015613a2457600080fd5b505af1158015613a38573d6000803e3d6000fd5b505050506000600660009054906101000a900473ffffffffffffffffffffffffffffffffffffffff1673ffffffffffffffffffffffffffffffffffffffff168260405180600001905060006040518083038185875af1925050503d8060008114613abe576040519150601f19603f3d011682016040523d82523d6000602084013e613ac3565b606091505b5050905080613b1d576040517f08c379a0000000000000000000000000000000000000000000000000000000008152600401808060200182810382526040815260200180613cb76040913960400191505060405180910390fd5b3373ffffffffffffffffffffffffffffffffffffffff167fce8d093d04c2ba220db9ed3e1c6271e0d86f2b7554dc8ed4e659dfe17536bbae84844260405180848152602001838152602001828152602001935050505060405180910390a2505050505050505050565b60008083118290613c32576040517f08c379a00000000000000000000000000000000000000000000000000000000081526004018080602001828103825283818151815260200191508051906020019080838360005b83811015613bf7578082015181840152602081019050613bdc565b50505050905090810190601f168015613c245780820380516001836020036101000a031916815260200191505b509250505060405180910390fd5b506000838581613c3e57fe5b049050809150509392505050565b604051806020016040528060007bffffffffffffffffffffffffffffffffffffffffffffffffffffffff1681525090565b604051806020016040528060008152509056fe4f776e61626c653a206e6577206f776e657220697320746865207a65726f20616464726573734275726e416e645265776172643a20756e61626c6520746f2073656e642076616c75652c20726563697069656e74206d61792068617665207265766572746564536166654d6174683a206d756c7469706c69636174696f6e206f766572666c6f777769746864726177616c20616d6f756e7420657863656564732062616c616e6365a2646970667358221220caab6769ac3aa379a72329ff7f4f7db514dddb6ade88acf3feb6e5cba77e7b3964736f6c63430007060033",
  "immutableReferences": {},
  "source": "// SPDX-License-Identifier: UNLICENSED\r\n\r\npragma solidity ^0.7.5;\r\n\r\nimport \"@openzeppelin/contracts/access/Ownable.sol\";\r\nimport \"@openzeppelin/contracts/utils/ReentrancyGuard.sol\";\r\nimport \"@openzeppelin/contracts/token/ERC20/IERC20.sol\";\r\nimport \"@openzeppelin/contracts/math/SafeMath.sol\";\r\n\r\nimport '@uniswap/v2-core/contracts/interfaces/IUniswapV2Pair.sol';\r\nimport '@uniswap/lib/contracts/libraries/FixedPoint.sol';\r\n\r\nimport \"./interfaces/IToken.sol\";\r\nimport \"./interfaces/IWETH.sol\";\r\n\r\ncontract Vault is Ownable, ReentrancyGuard {\r\n\r\n  using SafeMath for uint;\r\n\r\n  using FixedPoint for *;\r\n\r\n  struct User {\r\n    uint112 stake;\r\n    uint112 reward;\r\n    uint64 lastUpdate;\r\n  }\r\n\r\n  mapping(address => User) public userInfo;\r\n\r\n  IUniswapV2Pair public lpToken;\r\n\r\n  IToken public rewardToken;\r\n\r\n  IWETH public WETH;\r\n\r\n  address public rewardContract;\r\n\r\n  address private token0;\r\n\r\n  bool public enableStaking;\r\n\r\n  uint public totalStaked;\r\n\r\n  uint public apyPercentage;\r\n\r\n  uint public withdrawalFeePercentage;\r\n\r\n  uint public constant DENOMINATOR = 10000;\r\n\r\n  uint32 public constant ONE_YEAR = 365 days;\r\n\r\n  event TokenStake(address indexed _who, uint _amount, uint _timestamp);\r\n  event TokenWithdraw(address indexed _who, uint _amount, uint _timestamp);\r\n  event TokenClaim(address indexed _who, uint _amount, uint _timestamp);\r\n  event BurnAndReward(address indexed _who, uint _amountBurned, uint _amountRewarded, uint _timestamp);\r\n\r\n  // Use this on every fn that can change user's rewards data in any way\r\n  modifier updatesRewards(address _account) {\r\n    _updateRewards(_account);\r\n    _;\r\n  }\r\n\r\n  modifier stakingEnabled() {\r\n    require(enableStaking, \"Staking is disabled\");\r\n    _;\r\n  }\r\n\r\n  constructor(\r\n    address _lpToken,\r\n    address _rewardToken,\r\n    address _WETH,\r\n    address _rewardContract,\r\n    uint _withdrawalFeePercentage,\r\n    uint _apyPercentage\r\n  )\r\n  public\r\n  {\r\n    require(_lpToken != address(0));\r\n    lpToken = IUniswapV2Pair(_lpToken);\r\n    token0 = lpToken.token0();\r\n\r\n    require(_WETH != address(0));\r\n    WETH = IWETH(_WETH);\r\n\r\n    setRewardToken(_rewardToken);\r\n    setRewardContract(_rewardContract);\r\n    setWithdrawalFeePercentage(_withdrawalFeePercentage);\r\n    setApyPercentage(_apyPercentage);\r\n    setEnableStaking(true);\r\n  }\r\n\r\n  receive()\r\n  external\r\n  payable\r\n  {}\r\n\r\n  function stake(uint _tokens)\r\n  external\r\n  stakingEnabled\r\n  nonReentrant\r\n  updatesRewards(msg.sender)\r\n  returns (bool)\r\n  {\r\n    require(lpToken.transferFrom(msg.sender, address(this), _tokens), \"Tokens transfer failed\");\r\n\r\n    User storage user = userInfo[msg.sender];\r\n    user.stake = _toUint112(uint(user.stake).add(_tokens));\r\n    totalStaked = totalStaked.add(_tokens);\r\n\r\n    emit TokenStake(msg.sender, _tokens, block.timestamp);\r\n    return true;\r\n  }\r\n\r\n  function withdraw(uint _tokens)\r\n  external\r\n  nonReentrant\r\n  updatesRewards(msg.sender)\r\n  returns (bool)\r\n  {\r\n    _withdraw(msg.sender, _tokens);\r\n    return true;\r\n  }\r\n\r\n  // If you call this function you forfeit your rewards\r\n  function emergencyWithdraw()\r\n  external\r\n  nonReentrant\r\n  returns (bool)\r\n  {\r\n    User storage user = userInfo[msg.sender];\r\n    uint112 userStake = user.stake;\r\n\r\n    user.reward = 0;\r\n    user.lastUpdate = uint64(block.timestamp);\r\n\r\n    _withdraw(msg.sender, userStake);\r\n    return true;\r\n  }\r\n\r\n  function claim()\r\n  external\r\n  nonReentrant\r\n  updatesRewards(msg.sender)\r\n  returns (bool)\r\n  {\r\n    User storage user = userInfo[msg.sender];\r\n\r\n    uint reward = user.reward;\r\n    user.reward = 0;\r\n\r\n    rewardToken.mint(msg.sender, reward);\r\n\r\n    emit TokenClaim(msg.sender, reward, block.timestamp);\r\n    return true;\r\n  }\r\n\r\n  function setEnableStaking(bool _enable)\r\n  public\r\n  onlyOwner\r\n  {\r\n    enableStaking = _enable;\r\n  }\r\n\r\n  function setRewardToken(address _rewardToken)\r\n  public\r\n  onlyOwner\r\n  {\r\n    require(_rewardToken != address(0));\r\n    rewardToken = IToken(_rewardToken);\r\n  }\r\n\r\n  function setRewardContract(address _rewardContract)\r\n  public\r\n  onlyOwner\r\n  {\r\n    require(_rewardContract != address(0));\r\n    rewardContract = _rewardContract;\r\n  }\r\n\r\n  function setWithdrawalFeePercentage(uint _withdrawalFeePercentage)\r\n  public\r\n  onlyOwner\r\n  {\r\n    withdrawalFeePercentage = _withdrawalFeePercentage;\r\n  }\r\n\r\n  function setApyPercentage(uint _apyPercentage)\r\n  public\r\n  onlyOwner\r\n  {\r\n    apyPercentage = _apyPercentage;\r\n  }\r\n\r\n  function drainEth(uint _amount)\r\n  external\r\n  onlyOwner\r\n  {\r\n    msg.sender.transfer(_amount);\r\n  }\r\n\r\n  function drainTokens(address _token, uint _amount)\r\n  external\r\n  onlyOwner\r\n  {\r\n    if (_token == address(lpToken)) {\r\n      uint balance = IERC20(_token).balanceOf(address(this));\r\n      uint maxToDrain = balance.sub(totalStaked);\r\n      require(_amount <= maxToDrain, \"Cannot drain such amount\");\r\n    }\r\n    IERC20(_token).transfer(msg.sender, _amount);\r\n  }\r\n\r\n  function _updateRewards(address _account)\r\n  internal\r\n  {\r\n    User storage user = userInfo[_account];\r\n\r\n    if (user.lastUpdate == 0) {\r\n      user.lastUpdate = uint64(block.timestamp);\r\n    }\r\n\r\n    uint112 stakedBalance = user.stake;\r\n    uint64 lastUpdate = user.lastUpdate;\r\n\r\n    if (stakedBalance > 0 && lastUpdate != block.timestamp) {\r\n      uint timeElapsed = block.timestamp - lastUpdate;\r\n      uint144 rewardsEarned = calculateRewards(stakedBalance, timeElapsed);\r\n\r\n      user.reward = _toUint112(uint(user.reward).add(rewardsEarned));\r\n      user.lastUpdate = uint64(block.timestamp);\r\n    }\r\n  }\r\n\r\n  function _toUint112(uint _x)\r\n  internal\r\n  pure\r\n  returns (uint112)\r\n  {\r\n    require(_x <= uint112(- 1), \"overflow\");\r\n    return uint112(_x);\r\n  }\r\n\r\n  function _withdraw(address _account, uint _tokens)\r\n  internal\r\n  {\r\n    User storage user = userInfo[_account];\r\n\r\n    require(_tokens <= user.stake, \"withdrawal amount exceeds balance\");\r\n\r\n    uint fee = _tokens.mul(withdrawalFeePercentage).div(DENOMINATOR);\r\n    uint tokensToWithdraw = _tokens.sub(fee);\r\n\r\n    user.stake = _toUint112(uint(user.stake).sub(_tokens));\r\n    totalStaked = totalStaked.sub(_tokens);\r\n\r\n    _burnAndReward(fee);\r\n    require(lpToken.transfer(_account, tokensToWithdraw), \"Tokens transfer failed\");\r\n\r\n    emit TokenWithdraw(_account, tokensToWithdraw, block.timestamp);\r\n  }\r\n\r\n  // Retrieve both tokens from LP pair. Burn reward token. Send WETH to the reward contract.\r\n  function _burnAndReward(uint _amount)\r\n  internal\r\n  {\r\n    address lpTokenAddress = address(lpToken);\r\n    address rewardTokenAddress = address(rewardToken);\r\n\r\n    lpToken.transfer(lpTokenAddress, _amount);\r\n    (uint amount0, uint amount1) = lpToken.burn(address(this));\r\n    uint amountB = rewardTokenAddress == token0 ? amount1 : amount0;\r\n\r\n    // burn the whole balance of the reward token\r\n    uint rewardTokenBalance = IERC20(rewardTokenAddress).balanceOf(address(this));\r\n    rewardToken.burn(rewardTokenBalance);\r\n\r\n    // unwrap weth and send to the reward contract\r\n    uint wethBalance = IERC20(address(WETH)).balanceOf(address(this));\r\n    WETH.withdraw(wethBalance);\r\n\r\n    // solhint-disable-next-line avoid-low-level-calls, avoid-call-value\r\n    (bool success, ) = rewardContract.call{ value: wethBalance }(\"\");\r\n    require(success, \"BurnAndReward: unable to send value, recipient may have reverted\");\r\n\r\n    emit BurnAndReward(msg.sender, rewardTokenBalance, wethBalance, block.timestamp);\r\n  }\r\n\r\n  function calculateRewards()\r\n  public\r\n  view\r\n  returns (uint144)\r\n  {\r\n    User memory user = userInfo[msg.sender];\r\n    uint112 stakedBalance = user.stake;\r\n    uint64 lastUpdate = user.lastUpdate;\r\n    uint timeElapsed = block.timestamp - lastUpdate;\r\n    return calculateRewards(stakedBalance, timeElapsed);\r\n  }\r\n\r\n  function calculateRewards(uint112 _stakedBalance, uint _timeElapsed)\r\n  public\r\n  view\r\n  returns (uint144)\r\n  {\r\n    uint pairTokenReserves = IERC20(address(rewardToken)).balanceOf(address(lpToken));\r\n\r\n    uint112 lpTotalSupply = _toUint112(lpToken.totalSupply());\r\n    uint112 annualizedStakedValue = _toUint112(uint(_stakedBalance).mul(apyPercentage).div(DENOMINATOR));\r\n\r\n    FixedPoint.uq112x112 memory lpFraction = annualizedStakedValue.fraction(lpTotalSupply);\r\n    uint112 annualizedReturns = _toUint112(lpFraction.mul(pairTokenReserves).decode144());\r\n\r\n    FixedPoint.uq112x112 memory timeFraction = _toUint112(_timeElapsed).fraction(uint112(ONE_YEAR));\r\n    uint144 rewardsEarned = uint112(timeFraction.mul(annualizedReturns).decode144());\r\n\r\n    return rewardsEarned;\r\n  }\r\n\r\n  function getUserTotalRewards()\r\n  public\r\n  view\r\n  returns (uint144)\r\n  {\r\n    User memory user = userInfo[msg.sender];\r\n    return _toUint112(uint(user.reward).add(calculateRewards()));\r\n  }\r\n\r\n  function getUserInfo()\r\n  public\r\n  view\r\n  returns (uint112, uint112, uint64) {\r\n    User memory user = userInfo[msg.sender];\r\n    return (user.stake, user.reward, user.lastUpdate);\r\n  }\r\n\r\n  function getUserInfoFull()\r\n  external\r\n  view\r\n  returns (uint112, uint112, uint64, uint144, uint, uint) {\r\n    User memory user = userInfo[msg.sender];\r\n    uint144 totalRewards = getUserTotalRewards();\r\n    uint lpBalance = lpToken.balanceOf(msg.sender);\r\n    uint rewardTokenBalance = IERC20(address(rewardToken)).balanceOf(msg.sender);\r\n    return (user.stake, user.reward, user.lastUpdate, totalRewards, lpBalance, rewardTokenBalance);\r\n  }\r\n\r\n  function getLpAllowance()\r\n  external\r\n  view\r\n  returns (uint) {\r\n    return lpToken.allowance(msg.sender, address(this));\r\n  }\r\n}",
  "sourcePath": "C:/Users/pauli/Projects/BinanceX/contracts/Vault.sol",
  "compiler": {
    "name": "solc",
    "version": "0.7.6+commit.7338295f.Emscripten.clang"
  },
  "schemaVersion": "3.3.2",
  "updatedAt": "2020-12-17T18:55:56.826Z",
  "networkType": "ethereum",
  "devdoc": {
    "kind": "dev",
    "methods": {
      "owner()": {
        "details": "Returns the address of the current owner."
      },
      "renounceOwnership()": {
        "details": "Leaves the contract without owner. It will not be possible to call `onlyOwner` functions anymore. Can only be called by the current owner. NOTE: Renouncing ownership will leave the contract without an owner, thereby removing any functionality that is only available to the owner."
      },
      "transferOwnership(address)": {
        "details": "Transfers ownership of the contract to a new account (`newOwner`). Can only be called by the current owner."
      }
    },
    "version": 1
  },
  "userdoc": {
    "kind": "user",
    "methods": {},
    "version": 1
  }
}